{
  "_format": "hh-sol-artifact-1",
  "contractName": "ThetaCollectibles",
  "sourceName": "contracts/ThetaCollectibles.sol",
  "abi": [
    {
      "inputs": [
        {
          "internalType": "address",
          "name": "_reflectionPoolAddress",
          "type": "address"
        },
        {
          "internalType": "address",
          "name": "_birthdayBabyPoolAddress",
          "type": "address"
        },
        {
          "internalType": "address",
          "name": "_houseFeeAddress",
          "type": "address"
        }
      ],
      "stateMutability": "nonpayable",
      "type": "constructor"
    },
    {
      "inputs": [],
      "name": "AccessControlBadConfirmation",
      "type": "error"
    },
    {
      "inputs": [
        {
          "internalType": "address",
          "name": "account",
          "type": "address"
        },
        {
          "internalType": "bytes32",
          "name": "neededRole",
          "type": "bytes32"
        }
      ],
      "name": "AccessControlUnauthorizedAccount",
      "type": "error"
    },
    {
      "inputs": [
        {
          "internalType": "address",
          "name": "sender",
          "type": "address"
        },
        {
          "internalType": "uint256",
          "name": "tokenId",
          "type": "uint256"
        },
        {
          "internalType": "address",
          "name": "owner",
          "type": "address"
        }
      ],
      "name": "ERC721IncorrectOwner",
      "type": "error"
    },
    {
      "inputs": [
        {
          "internalType": "address",
          "name": "operator",
          "type": "address"
        },
        {
          "internalType": "uint256",
          "name": "tokenId",
          "type": "uint256"
        }
      ],
      "name": "ERC721InsufficientApproval",
      "type": "error"
    },
    {
      "inputs": [
        {
          "internalType": "address",
          "name": "approver",
          "type": "address"
        }
      ],
      "name": "ERC721InvalidApprover",
      "type": "error"
    },
    {
      "inputs": [
        {
          "internalType": "address",
          "name": "operator",
          "type": "address"
        }
      ],
      "name": "ERC721InvalidOperator",
      "type": "error"
    },
    {
      "inputs": [
        {
          "internalType": "address",
          "name": "owner",
          "type": "address"
        }
      ],
      "name": "ERC721InvalidOwner",
      "type": "error"
    },
    {
      "inputs": [
        {
          "internalType": "address",
          "name": "receiver",
          "type": "address"
        }
      ],
      "name": "ERC721InvalidReceiver",
      "type": "error"
    },
    {
      "inputs": [
        {
          "internalType": "address",
          "name": "sender",
          "type": "address"
        }
      ],
      "name": "ERC721InvalidSender",
      "type": "error"
    },
    {
      "inputs": [
        {
          "internalType": "uint256",
          "name": "tokenId",
          "type": "uint256"
        }
      ],
      "name": "ERC721NonexistentToken",
      "type": "error"
    },
    {
      "inputs": [],
      "name": "EnforcedPause",
      "type": "error"
    },
    {
      "inputs": [],
      "name": "ExpectedPause",
      "type": "error"
    },
    {
      "inputs": [
        {
          "internalType": "address",
          "name": "owner",
          "type": "address"
        }
      ],
      "name": "OwnableInvalidOwner",
      "type": "error"
    },
    {
      "inputs": [
        {
          "internalType": "address",
          "name": "account",
          "type": "address"
        }
      ],
      "name": "OwnableUnauthorizedAccount",
      "type": "error"
    },
    {
      "anonymous": false,
      "inputs": [
        {
          "indexed": true,
          "internalType": "address",
          "name": "owner",
          "type": "address"
        },
        {
          "indexed": true,
          "internalType": "address",
          "name": "approved",
          "type": "address"
        },
        {
          "indexed": true,
          "internalType": "uint256",
          "name": "tokenId",
          "type": "uint256"
        }
      ],
      "name": "Approval",
      "type": "event"
    },
    {
      "anonymous": false,
      "inputs": [
        {
          "indexed": true,
          "internalType": "address",
          "name": "owner",
          "type": "address"
        },
        {
          "indexed": true,
          "internalType": "address",
          "name": "operator",
          "type": "address"
        },
        {
          "indexed": false,
          "internalType": "bool",
          "name": "approved",
          "type": "bool"
        }
      ],
      "name": "ApprovalForAll",
      "type": "event"
    },
    {
      "anonymous": false,
      "inputs": [
        {
          "indexed": true,
          "internalType": "address",
          "name": "previousOwner",
          "type": "address"
        },
        {
          "indexed": true,
          "internalType": "address",
          "name": "newOwner",
          "type": "address"
        }
      ],
      "name": "OwnershipTransferred",
      "type": "event"
    },
    {
      "anonymous": false,
      "inputs": [
        {
          "indexed": false,
          "internalType": "address",
          "name": "account",
          "type": "address"
        }
      ],
      "name": "Paused",
      "type": "event"
    },
    {
      "anonymous": false,
      "inputs": [
        {
          "indexed": true,
          "internalType": "bytes32",
          "name": "role",
          "type": "bytes32"
        },
        {
          "indexed": true,
          "internalType": "bytes32",
          "name": "previousAdminRole",
          "type": "bytes32"
        },
        {
          "indexed": true,
          "internalType": "bytes32",
          "name": "newAdminRole",
          "type": "bytes32"
        }
      ],
      "name": "RoleAdminChanged",
      "type": "event"
    },
    {
      "anonymous": false,
      "inputs": [
        {
          "indexed": true,
          "internalType": "bytes32",
          "name": "role",
          "type": "bytes32"
        },
        {
          "indexed": true,
          "internalType": "address",
          "name": "account",
          "type": "address"
        },
        {
          "indexed": true,
          "internalType": "address",
          "name": "sender",
          "type": "address"
        }
      ],
      "name": "RoleGranted",
      "type": "event"
    },
    {
      "anonymous": false,
      "inputs": [
        {
          "indexed": true,
          "internalType": "bytes32",
          "name": "role",
          "type": "bytes32"
        },
        {
          "indexed": true,
          "internalType": "address",
          "name": "account",
          "type": "address"
        },
        {
          "indexed": true,
          "internalType": "address",
          "name": "sender",
          "type": "address"
        }
      ],
      "name": "RoleRevoked",
      "type": "event"
    },
    {
      "anonymous": false,
      "inputs": [
        {
          "indexed": true,
          "internalType": "address",
          "name": "owner",
          "type": "address"
        },
        {
          "indexed": true,
          "internalType": "uint256",
          "name": "tokenId",
          "type": "uint256"
        },
        {
          "components": [
            {
              "internalType": "address",
              "name": "owner",
              "type": "address"
            },
            {
              "internalType": "bytes32",
              "name": "url",
              "type": "bytes32"
            }
          ],
          "indexed": false,
          "internalType": "struct ThetaCollectibles.AstroData",
          "name": "",
          "type": "tuple"
        }
      ],
      "name": "ThetaMinted",
      "type": "event"
    },
    {
      "anonymous": false,
      "inputs": [
        {
          "indexed": true,
          "internalType": "address",
          "name": "from",
          "type": "address"
        },
        {
          "indexed": true,
          "internalType": "address",
          "name": "to",
          "type": "address"
        },
        {
          "indexed": true,
          "internalType": "uint256",
          "name": "tokenId",
          "type": "uint256"
        }
      ],
      "name": "Transfer",
      "type": "event"
    },
    {
      "anonymous": false,
      "inputs": [
        {
          "indexed": false,
          "internalType": "address",
          "name": "account",
          "type": "address"
        }
      ],
      "name": "Unpaused",
      "type": "event"
    },
    {
      "inputs": [],
      "name": "BIRTHDAY_BABY_POOL_PERCENTAGE",
      "outputs": [
        {
          "internalType": "uint8",
          "name": "",
          "type": "uint8"
        }
      ],
      "stateMutability": "view",
      "type": "function"
    },
    {
      "inputs": [],
      "name": "DEFAULT_ADMIN_ROLE",
      "outputs": [
        {
          "internalType": "bytes32",
          "name": "",
          "type": "bytes32"
        }
      ],
      "stateMutability": "view",
      "type": "function"
    },
    {
      "inputs": [],
      "name": "HOUSE_FEE_PERCENTAGE",
      "outputs": [
        {
          "internalType": "uint8",
          "name": "",
          "type": "uint8"
        }
      ],
      "stateMutability": "view",
      "type": "function"
    },
    {
      "inputs": [],
      "name": "MINTER_ROLE",
      "outputs": [
        {
          "internalType": "bytes32",
          "name": "",
          "type": "bytes32"
        }
      ],
      "stateMutability": "view",
      "type": "function"
    },
    {
      "inputs": [],
      "name": "MINT_PRICE",
      "outputs": [
        {
          "internalType": "uint256",
          "name": "",
          "type": "uint256"
        }
      ],
      "stateMutability": "view",
      "type": "function"
    },
    {
      "inputs": [],
      "name": "MINT_TAX_PERCENTAGE",
      "outputs": [
        {
          "internalType": "uint8",
          "name": "",
          "type": "uint8"
        }
      ],
      "stateMutability": "view",
      "type": "function"
    },
    {
      "inputs": [],
      "name": "PAUSER_ROLE",
      "outputs": [
        {
          "internalType": "bytes32",
          "name": "",
          "type": "bytes32"
        }
      ],
      "stateMutability": "view",
      "type": "function"
    },
    {
      "inputs": [],
      "name": "REFLECTION_POOL_PERCENTAGE",
      "outputs": [
        {
          "internalType": "uint8",
          "name": "",
          "type": "uint8"
        }
      ],
      "stateMutability": "view",
      "type": "function"
    },
    {
      "inputs": [
        {
          "internalType": "address",
          "name": "to",
          "type": "address"
        },
        {
          "internalType": "uint256",
          "name": "tokenId",
          "type": "uint256"
        }
      ],
      "name": "approve",
      "outputs": [],
      "stateMutability": "nonpayable",
      "type": "function"
    },
    {
      "inputs": [
        {
          "internalType": "uint256",
          "name": "",
          "type": "uint256"
        }
      ],
      "name": "astroData",
      "outputs": [
        {
          "internalType": "address",
          "name": "owner",
          "type": "address"
        },
        {
          "internalType": "bytes32",
          "name": "url",
          "type": "bytes32"
        }
      ],
      "stateMutability": "view",
      "type": "function"
    },
    {
      "inputs": [
        {
          "internalType": "address",
          "name": "owner",
          "type": "address"
        }
      ],
      "name": "balanceOf",
      "outputs": [
        {
          "internalType": "uint256",
          "name": "",
          "type": "uint256"
        }
      ],
      "stateMutability": "view",
      "type": "function"
    },
    {
      "inputs": [],
      "name": "birthdayBabyPoolAddress",
      "outputs": [
        {
          "internalType": "address",
          "name": "",
          "type": "address"
        }
      ],
      "stateMutability": "view",
      "type": "function"
    },
    {
      "inputs": [
        {
          "internalType": "uint256",
          "name": "tokenId",
          "type": "uint256"
        }
      ],
      "name": "getApproved",
      "outputs": [
        {
          "internalType": "address",
          "name": "",
          "type": "address"
        }
      ],
      "stateMutability": "view",
      "type": "function"
    },
    {
      "inputs": [],
      "name": "getMinterRole",
      "outputs": [],
      "stateMutability": "nonpayable",
      "type": "function"
    },
    {
      "inputs": [
        {
          "internalType": "bytes32",
          "name": "role",
          "type": "bytes32"
        }
      ],
      "name": "getRoleAdmin",
      "outputs": [
        {
          "internalType": "bytes32",
          "name": "",
          "type": "bytes32"
        }
      ],
      "stateMutability": "view",
      "type": "function"
    },
    {
      "inputs": [
        {
          "internalType": "bytes32",
          "name": "role",
          "type": "bytes32"
        },
        {
          "internalType": "address",
          "name": "account",
          "type": "address"
        }
      ],
      "name": "grantRole",
      "outputs": [],
      "stateMutability": "nonpayable",
      "type": "function"
    },
    {
      "inputs": [
        {
          "internalType": "bytes32",
          "name": "role",
          "type": "bytes32"
        },
        {
          "internalType": "address",
          "name": "account",
          "type": "address"
        }
      ],
      "name": "hasRole",
      "outputs": [
        {
          "internalType": "bool",
          "name": "",
          "type": "bool"
        }
      ],
      "stateMutability": "view",
      "type": "function"
    },
    {
      "inputs": [],
      "name": "houseFeeAddress",
      "outputs": [
        {
          "internalType": "address",
          "name": "",
          "type": "address"
        }
      ],
      "stateMutability": "view",
      "type": "function"
    },
    {
      "inputs": [
        {
          "internalType": "address",
          "name": "owner",
          "type": "address"
        },
        {
          "internalType": "address",
          "name": "operator",
          "type": "address"
        }
      ],
      "name": "isApprovedForAll",
      "outputs": [
        {
          "internalType": "bool",
          "name": "",
          "type": "bool"
        }
      ],
      "stateMutability": "view",
      "type": "function"
    },
    {
      "inputs": [
        {
          "internalType": "bytes32",
          "name": "url",
          "type": "bytes32"
        }
      ],
      "name": "mintTheta",
      "outputs": [],
      "stateMutability": "payable",
      "type": "function"
    },
    {
      "inputs": [],
      "name": "name",
      "outputs": [
        {
          "internalType": "string",
          "name": "",
          "type": "string"
        }
      ],
      "stateMutability": "view",
      "type": "function"
    },
    {
      "inputs": [],
      "name": "owner",
      "outputs": [
        {
          "internalType": "address",
          "name": "",
          "type": "address"
        }
      ],
      "stateMutability": "view",
      "type": "function"
    },
    {
      "inputs": [
        {
          "internalType": "uint256",
          "name": "tokenId",
          "type": "uint256"
        }
      ],
      "name": "ownerOf",
      "outputs": [
        {
          "internalType": "address",
          "name": "",
          "type": "address"
        }
      ],
      "stateMutability": "view",
      "type": "function"
    },
    {
      "inputs": [],
      "name": "pause",
      "outputs": [],
      "stateMutability": "nonpayable",
      "type": "function"
    },
    {
      "inputs": [],
      "name": "paused",
      "outputs": [
        {
          "internalType": "bool",
          "name": "",
          "type": "bool"
        }
      ],
      "stateMutability": "view",
      "type": "function"
    },
    {
      "inputs": [],
      "name": "reflectionPoolAddress",
      "outputs": [
        {
          "internalType": "address",
          "name": "",
          "type": "address"
        }
      ],
      "stateMutability": "view",
      "type": "function"
    },
    {
      "inputs": [],
      "name": "renounceOwnership",
      "outputs": [],
      "stateMutability": "nonpayable",
      "type": "function"
    },
    {
      "inputs": [
        {
          "internalType": "bytes32",
          "name": "role",
          "type": "bytes32"
        },
        {
          "internalType": "address",
          "name": "callerConfirmation",
          "type": "address"
        }
      ],
      "name": "renounceRole",
      "outputs": [],
      "stateMutability": "nonpayable",
      "type": "function"
    },
    {
      "inputs": [
        {
          "internalType": "bytes32",
          "name": "role",
          "type": "bytes32"
        },
        {
          "internalType": "address",
          "name": "account",
          "type": "address"
        }
      ],
      "name": "revokeRole",
      "outputs": [],
      "stateMutability": "nonpayable",
      "type": "function"
    },
    {
      "inputs": [
        {
          "internalType": "address",
          "name": "from",
          "type": "address"
        },
        {
          "internalType": "address",
          "name": "to",
          "type": "address"
        },
        {
          "internalType": "uint256",
          "name": "tokenId",
          "type": "uint256"
        }
      ],
      "name": "safeTransferFrom",
      "outputs": [],
      "stateMutability": "nonpayable",
      "type": "function"
    },
    {
      "inputs": [
        {
          "internalType": "address",
          "name": "from",
          "type": "address"
        },
        {
          "internalType": "address",
          "name": "to",
          "type": "address"
        },
        {
          "internalType": "uint256",
          "name": "tokenId",
          "type": "uint256"
        },
        {
          "internalType": "bytes",
          "name": "data",
          "type": "bytes"
        }
      ],
      "name": "safeTransferFrom",
      "outputs": [],
      "stateMutability": "nonpayable",
      "type": "function"
    },
    {
      "inputs": [
        {
          "internalType": "address",
          "name": "operator",
          "type": "address"
        },
        {
          "internalType": "bool",
          "name": "approved",
          "type": "bool"
        }
      ],
      "name": "setApprovalForAll",
      "outputs": [],
      "stateMutability": "nonpayable",
      "type": "function"
    },
    {
      "inputs": [
        {
          "internalType": "bytes4",
          "name": "interfaceId",
          "type": "bytes4"
        }
      ],
      "name": "supportsInterface",
      "outputs": [
        {
          "internalType": "bool",
          "name": "",
          "type": "bool"
        }
      ],
      "stateMutability": "view",
      "type": "function"
    },
    {
      "inputs": [],
      "name": "symbol",
      "outputs": [
        {
          "internalType": "string",
          "name": "",
          "type": "string"
        }
      ],
      "stateMutability": "view",
      "type": "function"
    },
    {
      "inputs": [
        {
          "internalType": "uint256",
          "name": "tokenId",
          "type": "uint256"
        }
      ],
      "name": "tokenURI",
      "outputs": [
        {
          "internalType": "string",
          "name": "",
          "type": "string"
        }
      ],
      "stateMutability": "view",
      "type": "function"
    },
    {
      "inputs": [
        {
          "internalType": "address",
          "name": "from",
          "type": "address"
        },
        {
          "internalType": "address",
          "name": "to",
          "type": "address"
        },
        {
          "internalType": "uint256",
          "name": "tokenId",
          "type": "uint256"
        }
      ],
      "name": "transferFrom",
      "outputs": [],
      "stateMutability": "nonpayable",
      "type": "function"
    },
    {
      "inputs": [
        {
          "internalType": "address",
          "name": "newOwner",
          "type": "address"
        }
      ],
      "name": "transferOwnership",
      "outputs": [],
      "stateMutability": "nonpayable",
      "type": "function"
    },
    {
      "inputs": [],
      "name": "unpause",
      "outputs": [],
      "stateMutability": "nonpayable",
      "type": "function"
    }
  ],
  "bytecode": "0x608060405234801561001057600080fd5b50604051613bf2380380613bf283398181016040528101906100329190610508565b336040518060400160405280601181526020017f5468657461436f6c6c65637469626c65730000000000000000000000000000008152506040518060400160405280600581526020017f544845544100000000000000000000000000000000000000000000000000000081525081600090816100ae91906107ab565b5080600190816100be91906107ab565b5050506000600660006101000a81548160ff021916908315150217905550600073ffffffffffffffffffffffffffffffffffffffff168173ffffffffffffffffffffffffffffffffffffffff160361014e5760006040517f1e4fbdf7000000000000000000000000000000000000000000000000000000008152600401610145919061088c565b60405180910390fd5b61015d8161026e60201b60201c565b5082600a60006101000a81548173ffffffffffffffffffffffffffffffffffffffff021916908373ffffffffffffffffffffffffffffffffffffffff16021790555081600b60006101000a81548173ffffffffffffffffffffffffffffffffffffffff021916908373ffffffffffffffffffffffffffffffffffffffff16021790555080600c60006101000a81548173ffffffffffffffffffffffffffffffffffffffff021916908373ffffffffffffffffffffffffffffffffffffffff1602179055506102346000801b3361033460201b60201c565b506102657f65d7a28e3265b37a6474929f336521b332c1681b933f6cb9f3376673440d862a3361033460201b60201c565b505050506108a7565b6000600860009054906101000a900473ffffffffffffffffffffffffffffffffffffffff16905081600860006101000a81548173ffffffffffffffffffffffffffffffffffffffff021916908373ffffffffffffffffffffffffffffffffffffffff1602179055508173ffffffffffffffffffffffffffffffffffffffff168173ffffffffffffffffffffffffffffffffffffffff167f8be0079c531659141344cd1fd0a4f28419497f9722a3daafe3b4186f6b6457e060405160405180910390a35050565b6000610346838361043260201b60201c565b6104275760016007600085815260200190815260200160002060000160008473ffffffffffffffffffffffffffffffffffffffff1673ffffffffffffffffffffffffffffffffffffffff16815260200190815260200160002060006101000a81548160ff0219169083151502179055506103c461049d60201b60201c565b73ffffffffffffffffffffffffffffffffffffffff168273ffffffffffffffffffffffffffffffffffffffff16847f2f8788117e7eff1d82e926ec794901d17c78024a50270940304540a733656f0d60405160405180910390a46001905061042c565b600090505b92915050565b60006007600084815260200190815260200160002060000160008373ffffffffffffffffffffffffffffffffffffffff1673ffffffffffffffffffffffffffffffffffffffff16815260200190815260200160002060009054906101000a900460ff16905092915050565b600033905090565b600080fd5b600073ffffffffffffffffffffffffffffffffffffffff82169050919050565b60006104d5826104aa565b9050919050565b6104e5816104ca565b81146104f057600080fd5b50565b600081519050610502816104dc565b92915050565b600080600060608486031215610521576105206104a5565b5b600061052f868287016104f3565b9350506020610540868287016104f3565b9250506040610551868287016104f3565b9150509250925092565b600081519050919050565b7f4e487b7100000000000000000000000000000000000000000000000000000000600052604160045260246000fd5b7f4e487b7100000000000000000000000000000000000000000000000000000000600052602260045260246000fd5b600060028204905060018216806105dc57607f821691505b6020821081036105ef576105ee610595565b5b50919050565b60008190508160005260206000209050919050565b60006020601f8301049050919050565b600082821b905092915050565b6000600883026106577fffffffffffffffffffffffffffffffffffffffffffffffffffffffffffffffff8261061a565b610661868361061a565b95508019841693508086168417925050509392505050565b6000819050919050565b6000819050919050565b60006106a86106a361069e84610679565b610683565b610679565b9050919050565b6000819050919050565b6106c28361068d565b6106d66106ce826106af565b848454610627565b825550505050565b600090565b6106eb6106de565b6106f68184846106b9565b505050565b5b8181101561071a5761070f6000826106e3565b6001810190506106fc565b5050565b601f82111561075f57610730816105f5565b6107398461060a565b81016020851015610748578190505b61075c6107548561060a565b8301826106fb565b50505b505050565b600082821c905092915050565b600061078260001984600802610764565b1980831691505092915050565b600061079b8383610771565b9150826002028217905092915050565b6107b48261055b565b67ffffffffffffffff8111156107cd576107cc610566565b5b6107d782546105c4565b6107e282828561071e565b600060209050601f8311600181146108155760008415610803578287015190505b61080d858261078f565b865550610875565b601f198416610823866105f5565b60005b8281101561084b57848901518255600182019150602085019450602081019050610826565b868310156108685784890151610864601f891682610771565b8355505b6001600288020188555050505b505050505050565b610886816104ca565b82525050565b60006020820190506108a1600083018461087d565b92915050565b61333c806108b66000396000f3fe6080604052600436106102255760003560e01c806391d1485411610123578063ce733080116100ab578063e7e80e2a1161006f578063e7e80e2a146107d8578063e985e9c514610816578063ea35f36c14610853578063eebcd82d1461086a578063f2fde38b1461089557610225565b8063ce73308014610712578063d53913931461073d578063d547741f14610768578063e034af3f14610791578063e63ab1e9146107ad57610225565b8063a22cb465116100f2578063a22cb4651461062d578063aa7eb9c914610656578063b88d4fde14610681578063c002d23d146106aa578063c87b56dd146106d557610225565b806391d148541461056f57806395aed9f9146105ac57806395d89b41146105d7578063a217fddf1461060257610225565b806342842e0e116101b1578063663e112711610175578063663e1127146104ae57806370a08231146104d9578063715018a6146105165780638456cb591461052d5780638da5cb5b1461054457610225565b806342842e0e146103c75780635c975abb146103f05780635dfc54b71461041b5780636352211e14610446578063660eebd61461048357610225565b806323b872dd116101f857806323b872dd146102f8578063248a9ca3146103215780632f2ff15d1461035e57806336568abe146103875780633f4ba83a146103b057610225565b806301ffc9a71461022a57806306fdde0314610267578063081812fc14610292578063095ea7b3146102cf575b600080fd5b34801561023657600080fd5b50610251600480360381019061024c91906128af565b6108be565b60405161025e91906128f7565b60405180910390f35b34801561027357600080fd5b5061027c6108e0565b60405161028991906129a2565b60405180910390f35b34801561029e57600080fd5b506102b960048036038101906102b491906129fa565b610972565b6040516102c69190612a68565b60405180910390f35b3480156102db57600080fd5b506102f660048036038101906102f19190612aaf565b61098e565b005b34801561030457600080fd5b5061031f600480360381019061031a9190612aef565b6109a4565b005b34801561032d57600080fd5b5061034860048036038101906103439190612b78565b610aa6565b6040516103559190612bb4565b60405180910390f35b34801561036a57600080fd5b5061038560048036038101906103809190612bcf565b610ac6565b005b34801561039357600080fd5b506103ae60048036038101906103a99190612bcf565b610ae8565b005b3480156103bc57600080fd5b506103c5610b63565b005b3480156103d357600080fd5b506103ee60048036038101906103e99190612aef565b610b98565b005b3480156103fc57600080fd5b50610405610bb8565b60405161041291906128f7565b60405180910390f35b34801561042757600080fd5b50610430610bcf565b60405161043d9190612c2b565b60405180910390f35b34801561045257600080fd5b5061046d600480360381019061046891906129fa565b610bd4565b60405161047a9190612a68565b60405180910390f35b34801561048f57600080fd5b50610498610be6565b6040516104a59190612c2b565b60405180910390f35b3480156104ba57600080fd5b506104c3610beb565b6040516104d09190612c2b565b60405180910390f35b3480156104e557600080fd5b5061050060048036038101906104fb9190612c46565b610bf0565b60405161050d9190612c82565b60405180910390f35b34801561052257600080fd5b5061052b610caa565b005b34801561053957600080fd5b50610542610cbe565b005b34801561055057600080fd5b50610559610cf3565b6040516105669190612a68565b60405180910390f35b34801561057b57600080fd5b5061059660048036038101906105919190612bcf565b610d1d565b6040516105a391906128f7565b60405180910390f35b3480156105b857600080fd5b506105c1610d88565b6040516105ce9190612a68565b60405180910390f35b3480156105e357600080fd5b506105ec610dae565b6040516105f991906129a2565b60405180910390f35b34801561060e57600080fd5b50610617610e40565b6040516106249190612bb4565b60405180910390f35b34801561063957600080fd5b50610654600480360381019061064f9190612cc9565b610e47565b005b34801561066257600080fd5b5061066b610e5d565b6040516106789190612c2b565b60405180910390f35b34801561068d57600080fd5b506106a860048036038101906106a39190612e3e565b610e62565b005b3480156106b657600080fd5b506106bf610e7f565b6040516106cc9190612c82565b60405180910390f35b3480156106e157600080fd5b506106fc60048036038101906106f791906129fa565b610e8a565b60405161070991906129a2565b60405180910390f35b34801561071e57600080fd5b50610727610ef3565b6040516107349190612a68565b60405180910390f35b34801561074957600080fd5b50610752610f19565b60405161075f9190612bb4565b60405180910390f35b34801561077457600080fd5b5061078f600480360381019061078a9190612bcf565b610f3d565b005b6107ab60048036038101906107a69190612b78565b610f5f565b005b3480156107b957600080fd5b506107c26112bf565b6040516107cf9190612bb4565b60405180910390f35b3480156107e457600080fd5b506107ff60048036038101906107fa91906129fa565b6112e3565b60405161080d929190612ec1565b60405180910390f35b34801561082257600080fd5b5061083d60048036038101906108389190612eea565b611327565b60405161084a91906128f7565b60405180910390f35b34801561085f57600080fd5b506108686113bb565b005b34801561087657600080fd5b5061087f6113e8565b60405161088c9190612a68565b60405180910390f35b3480156108a157600080fd5b506108bc60048036038101906108b79190612c46565b61140e565b005b60006108c982611494565b806108d957506108d882611576565b5b9050919050565b6060600080546108ef90612f59565b80601f016020809104026020016040519081016040528092919081815260200182805461091b90612f59565b80156109685780601f1061093d57610100808354040283529160200191610968565b820191906000526020600020905b81548152906001019060200180831161094b57829003601f168201915b5050505050905090565b600061097d826115f0565b5061098782611678565b9050919050565b6109a0828261099b6116b5565b6116bd565b5050565b600073ffffffffffffffffffffffffffffffffffffffff168273ffffffffffffffffffffffffffffffffffffffff1603610a165760006040517f64a0ae92000000000000000000000000000000000000000000000000000000008152600401610a0d9190612a68565b60405180910390fd5b6000610a2a8383610a256116b5565b6116cf565b90508373ffffffffffffffffffffffffffffffffffffffff168173ffffffffffffffffffffffffffffffffffffffff1614610aa0578382826040517f64283d7b000000000000000000000000000000000000000000000000000000008152600401610a9793929190612f8a565b60405180910390fd5b50505050565b600060076000838152602001908152602001600020600101549050919050565b610acf82610aa6565b610ad8816116e5565b610ae283836116f9565b50505050565b610af06116b5565b73ffffffffffffffffffffffffffffffffffffffff168173ffffffffffffffffffffffffffffffffffffffff1614610b54576040517f6697b23200000000000000000000000000000000000000000000000000000000815260040160405180910390fd5b610b5e82826117eb565b505050565b7f65d7a28e3265b37a6474929f336521b332c1681b933f6cb9f3376673440d862a610b8d816116e5565b610b956118de565b50565b610bb383838360405180602001604052806000815250610e62565b505050565b6000600660009054906101000a900460ff16905090565b600581565b6000610bdf826115f0565b9050919050565b600f81565b600581565b60008073ffffffffffffffffffffffffffffffffffffffff168273ffffffffffffffffffffffffffffffffffffffff1603610c635760006040517f89c62b64000000000000000000000000000000000000000000000000000000008152600401610c5a9190612a68565b60405180910390fd5b600360008373ffffffffffffffffffffffffffffffffffffffff1673ffffffffffffffffffffffffffffffffffffffff168152602001908152602001600020549050919050565b610cb2611941565b610cbc60006119c8565b565b7f65d7a28e3265b37a6474929f336521b332c1681b933f6cb9f3376673440d862a610ce8816116e5565b610cf0611a8e565b50565b6000600860009054906101000a900473ffffffffffffffffffffffffffffffffffffffff16905090565b60006007600084815260200190815260200160002060000160008373ffffffffffffffffffffffffffffffffffffffff1673ffffffffffffffffffffffffffffffffffffffff16815260200190815260200160002060009054906101000a900460ff16905092915050565b600b60009054906101000a900473ffffffffffffffffffffffffffffffffffffffff1681565b606060018054610dbd90612f59565b80601f0160208091040260200160405190810160405280929190818152602001828054610de990612f59565b8015610e365780601f10610e0b57610100808354040283529160200191610e36565b820191906000526020600020905b815481529060010190602001808311610e1957829003601f168201915b5050505050905090565b6000801b81565b610e59610e526116b5565b8383611af1565b5050565b600581565b610e6d8484846109a4565b610e7984848484611c60565b50505050565b6603e871b540c00081565b6060610e95826115f0565b506000610ea0611e17565b90506000815111610ec05760405180602001604052806000815250610eeb565b80610eca84611e2e565b604051602001610edb929190612ffd565b6040516020818303038152906040525b915050919050565b600a60009054906101000a900473ffffffffffffffffffffffffffffffffffffffff1681565b7f9f2df0fed2c77648de5860a4cc508cd0818c85b8b8a1ab4ceeef8d981c8956a681565b610f4682610aa6565b610f4f816116e5565b610f5983836117eb565b50505050565b7f9f2df0fed2c77648de5860a4cc508cd0818c85b8b8a1ab4ceeef8d981c8956a6610f89816116e5565b6603e871b540c000341015610fd3576040517f08c379a0000000000000000000000000000000000000000000000000000000008152600401610fca9061306d565b60405180910390fd5b60006064600f60ff1634610fe791906130bc565b610ff1919061312d565b905060006064600560ff168361100791906130bc565b611011919061312d565b905060006064600560ff168461102791906130bc565b611031919061312d565b905060006064600560ff168561104791906130bc565b611051919061312d565b9050600a60009054906101000a900473ffffffffffffffffffffffffffffffffffffffff1673ffffffffffffffffffffffffffffffffffffffff166108fc849081150290604051600060405180830381858888f193505050501580156110bb573d6000803e3d6000fd5b50600b60009054906101000a900473ffffffffffffffffffffffffffffffffffffffff1673ffffffffffffffffffffffffffffffffffffffff166108fc839081150290604051600060405180830381858888f19350505050158015611124573d6000803e3d6000fd5b50600c60009054906101000a900473ffffffffffffffffffffffffffffffffffffffff1673ffffffffffffffffffffffffffffffffffffffff166108fc829081150290604051600060405180830381858888f1935050505015801561118d573d6000803e3d6000fd5b506000600160095461119f919061315e565b90506111ab3382611efc565b60405180604001604052803373ffffffffffffffffffffffffffffffffffffffff16815260200188815250600d600083815260200190815260200160002060008201518160000160006101000a81548173ffffffffffffffffffffffffffffffffffffffff021916908373ffffffffffffffffffffffffffffffffffffffff16021790555060208201518160010155905050803373ffffffffffffffffffffffffffffffffffffffff167f3946db579f8d84b395e76b53c506e3d12fc1967a3b5d860a5185a05e8c817ac560405180604001604052803373ffffffffffffffffffffffffffffffffffffffff1681526020018b8152506040516112ae91906131df565b60405180910390a350505050505050565b7f65d7a28e3265b37a6474929f336521b332c1681b933f6cb9f3376673440d862a81565b600d6020528060005260406000206000915090508060000160009054906101000a900473ffffffffffffffffffffffffffffffffffffffff16908060010154905082565b6000600560008473ffffffffffffffffffffffffffffffffffffffff1673ffffffffffffffffffffffffffffffffffffffff16815260200190815260200160002060008373ffffffffffffffffffffffffffffffffffffffff1673ffffffffffffffffffffffffffffffffffffffff16815260200190815260200160002060009054906101000a900460ff16905092915050565b6113e57f9f2df0fed2c77648de5860a4cc508cd0818c85b8b8a1ab4ceeef8d981c8956a6336116f9565b50565b600c60009054906101000a900473ffffffffffffffffffffffffffffffffffffffff1681565b611416611941565b600073ffffffffffffffffffffffffffffffffffffffff168173ffffffffffffffffffffffffffffffffffffffff16036114885760006040517f1e4fbdf700000000000000000000000000000000000000000000000000000000815260040161147f9190612a68565b60405180910390fd5b611491816119c8565b50565b60007f80ac58cd000000000000000000000000000000000000000000000000000000007bffffffffffffffffffffffffffffffffffffffffffffffffffffffff1916827bffffffffffffffffffffffffffffffffffffffffffffffffffffffff1916148061155f57507f5b5e139f000000000000000000000000000000000000000000000000000000007bffffffffffffffffffffffffffffffffffffffffffffffffffffffff1916827bffffffffffffffffffffffffffffffffffffffffffffffffffffffff1916145b8061156f575061156e82611ff5565b5b9050919050565b60007f7965db0b000000000000000000000000000000000000000000000000000000007bffffffffffffffffffffffffffffffffffffffffffffffffffffffff1916827bffffffffffffffffffffffffffffffffffffffffffffffffffffffff191614806115e957506115e882611494565b5b9050919050565b6000806115fc8361205f565b9050600073ffffffffffffffffffffffffffffffffffffffff168173ffffffffffffffffffffffffffffffffffffffff160361166f57826040517f7e2732890000000000000000000000000000000000000000000000000000000081526004016116669190612c82565b60405180910390fd5b80915050919050565b60006004600083815260200190815260200160002060009054906101000a900473ffffffffffffffffffffffffffffffffffffffff169050919050565b600033905090565b6116ca838383600161209c565b505050565b60006116dc848484612261565b90509392505050565b6116f6816116f16116b5565b61227f565b50565b60006117058383610d1d565b6117e05760016007600085815260200190815260200160002060000160008473ffffffffffffffffffffffffffffffffffffffff1673ffffffffffffffffffffffffffffffffffffffff16815260200190815260200160002060006101000a81548160ff02191690831515021790555061177d6116b5565b73ffffffffffffffffffffffffffffffffffffffff168273ffffffffffffffffffffffffffffffffffffffff16847f2f8788117e7eff1d82e926ec794901d17c78024a50270940304540a733656f0d60405160405180910390a4600190506117e5565b600090505b92915050565b60006117f78383610d1d565b156118d35760006007600085815260200190815260200160002060000160008473ffffffffffffffffffffffffffffffffffffffff1673ffffffffffffffffffffffffffffffffffffffff16815260200190815260200160002060006101000a81548160ff0219169083151502179055506118706116b5565b73ffffffffffffffffffffffffffffffffffffffff168273ffffffffffffffffffffffffffffffffffffffff16847ff6391f5c32d9c69d2a47ea670b442974b53935d1edc7fd64eb21e047a839171b60405160405180910390a4600190506118d8565b600090505b92915050565b6118e66122d0565b6000600660006101000a81548160ff0219169083151502179055507f5db9ee0a495bf2e6ff9c91a7834c1ba4fdd244a5e8aa4e537bd38aeae4b073aa61192a6116b5565b6040516119379190612a68565b60405180910390a1565b6119496116b5565b73ffffffffffffffffffffffffffffffffffffffff16611967610cf3565b73ffffffffffffffffffffffffffffffffffffffff16146119c65761198a6116b5565b6040517f118cdaa70000000000000000000000000000000000000000000000000000000081526004016119bd9190612a68565b60405180910390fd5b565b6000600860009054906101000a900473ffffffffffffffffffffffffffffffffffffffff16905081600860006101000a81548173ffffffffffffffffffffffffffffffffffffffff021916908373ffffffffffffffffffffffffffffffffffffffff1602179055508173ffffffffffffffffffffffffffffffffffffffff168173ffffffffffffffffffffffffffffffffffffffff167f8be0079c531659141344cd1fd0a4f28419497f9722a3daafe3b4186f6b6457e060405160405180910390a35050565b611a96612310565b6001600660006101000a81548160ff0219169083151502179055507f62e78cea01bee320cd4e420270b5ea74000d11b0c9f74754ebdbfc544b05a258611ada6116b5565b604051611ae79190612a68565b60405180910390a1565b600073ffffffffffffffffffffffffffffffffffffffff168273ffffffffffffffffffffffffffffffffffffffff1603611b6257816040517f5b08ba18000000000000000000000000000000000000000000000000000000008152600401611b599190612a68565b60405180910390fd5b80600560008573ffffffffffffffffffffffffffffffffffffffff1673ffffffffffffffffffffffffffffffffffffffff16815260200190815260200160002060008473ffffffffffffffffffffffffffffffffffffffff1673ffffffffffffffffffffffffffffffffffffffff16815260200190815260200160002060006101000a81548160ff0219169083151502179055508173ffffffffffffffffffffffffffffffffffffffff168373ffffffffffffffffffffffffffffffffffffffff167f17307eab39ab6107e8899845ad3d59bd9653f200f220920489ca2b5937696c3183604051611c5391906128f7565b60405180910390a3505050565b60008373ffffffffffffffffffffffffffffffffffffffff163b1115611e11578273ffffffffffffffffffffffffffffffffffffffff1663150b7a02611ca46116b5565b8685856040518563ffffffff1660e01b8152600401611cc6949392919061324f565b6020604051808303816000875af1925050508015611d0257506040513d601f19601f82011682018060405250810190611cff91906132b0565b60015b611d86573d8060008114611d32576040519150601f19603f3d011682016040523d82523d6000602084013e611d37565b606091505b506000815103611d7e57836040517f64a0ae92000000000000000000000000000000000000000000000000000000008152600401611d759190612a68565b60405180910390fd5b805181602001fd5b63150b7a0260e01b7bffffffffffffffffffffffffffffffffffffffffffffffffffffffff1916817bffffffffffffffffffffffffffffffffffffffffffffffffffffffff191614611e0f57836040517f64a0ae92000000000000000000000000000000000000000000000000000000008152600401611e069190612a68565b60405180910390fd5b505b50505050565b606060405180602001604052806000815250905090565b606060006001611e3d84612351565b01905060008167ffffffffffffffff811115611e5c57611e5b612d13565b5b6040519080825280601f01601f191660200182016040528015611e8e5781602001600182028036833780820191505090505b509050600082602001820190505b600115611ef1578080600190039150507f3031323334353637383961626364656600000000000000000000000000000000600a86061a8153600a8581611ee557611ee46130fe565b5b04945060008503611e9c575b819350505050919050565b600073ffffffffffffffffffffffffffffffffffffffff168273ffffffffffffffffffffffffffffffffffffffff1603611f6e5760006040517f64a0ae92000000000000000000000000000000000000000000000000000000008152600401611f659190612a68565b60405180910390fd5b6000611f7c838360006116cf565b9050600073ffffffffffffffffffffffffffffffffffffffff168173ffffffffffffffffffffffffffffffffffffffff1614611ff05760006040517f73c6ac6e000000000000000000000000000000000000000000000000000000008152600401611fe79190612a68565b60405180910390fd5b505050565b60007f01ffc9a7000000000000000000000000000000000000000000000000000000007bffffffffffffffffffffffffffffffffffffffffffffffffffffffff1916827bffffffffffffffffffffffffffffffffffffffffffffffffffffffff1916149050919050565b60006002600083815260200190815260200160002060009054906101000a900473ffffffffffffffffffffffffffffffffffffffff169050919050565b80806120d55750600073ffffffffffffffffffffffffffffffffffffffff168273ffffffffffffffffffffffffffffffffffffffff1614155b156122095760006120e5846115f0565b9050600073ffffffffffffffffffffffffffffffffffffffff168373ffffffffffffffffffffffffffffffffffffffff161415801561215057508273ffffffffffffffffffffffffffffffffffffffff168173ffffffffffffffffffffffffffffffffffffffff1614155b801561216357506121618184611327565b155b156121a557826040517fa9fbf51f00000000000000000000000000000000000000000000000000000000815260040161219c9190612a68565b60405180910390fd5b811561220757838573ffffffffffffffffffffffffffffffffffffffff168273ffffffffffffffffffffffffffffffffffffffff167f8c5be1e5ebec7d5bd14f71427d1e84f3dd0314c0f7b2291e5b200ac8c7c3b92560405160405180910390a45b505b836004600085815260200190815260200160002060006101000a81548173ffffffffffffffffffffffffffffffffffffffff021916908373ffffffffffffffffffffffffffffffffffffffff16021790555050505050565b600061226b612310565b6122768484846124a4565b90509392505050565b6122898282610d1d565b6122cc5780826040517fe2517d3f0000000000000000000000000000000000000000000000000000000081526004016122c3929190612ec1565b60405180910390fd5b5050565b6122d8610bb8565b61230e576040517f8dfc202b00000000000000000000000000000000000000000000000000000000815260040160405180910390fd5b565b612318610bb8565b1561234f576040517fd93c066500000000000000000000000000000000000000000000000000000000815260040160405180910390fd5b565b600080600090507a184f03e93ff9f4daa797ed6e38ed64bf6a1f01000000000000000083106123af577a184f03e93ff9f4daa797ed6e38ed64bf6a1f01000000000000000083816123a5576123a46130fe565b5b0492506040810190505b6d04ee2d6d415b85acef810000000083106123ec576d04ee2d6d415b85acef810000000083816123e2576123e16130fe565b5b0492506020810190505b662386f26fc10000831061241b57662386f26fc100008381612411576124106130fe565b5b0492506010810190505b6305f5e1008310612444576305f5e100838161243a576124396130fe565b5b0492506008810190505b612710831061246957612710838161245f5761245e6130fe565b5b0492506004810190505b6064831061248c5760648381612482576124816130fe565b5b0492506002810190505b600a831061249b576001810190505b80915050919050565b6000806124b08461205f565b9050600073ffffffffffffffffffffffffffffffffffffffff168373ffffffffffffffffffffffffffffffffffffffff16146124f2576124f18184866126be565b5b600073ffffffffffffffffffffffffffffffffffffffff168173ffffffffffffffffffffffffffffffffffffffff16146125835761253460008560008061209c565b6001600360008373ffffffffffffffffffffffffffffffffffffffff1673ffffffffffffffffffffffffffffffffffffffff168152602001908152602001600020600082825403925050819055505b600073ffffffffffffffffffffffffffffffffffffffff168573ffffffffffffffffffffffffffffffffffffffff1614612606576001600360008773ffffffffffffffffffffffffffffffffffffffff1673ffffffffffffffffffffffffffffffffffffffff168152602001908152602001600020600082825401925050819055505b846002600086815260200190815260200160002060006101000a81548173ffffffffffffffffffffffffffffffffffffffff021916908373ffffffffffffffffffffffffffffffffffffffff160217905550838573ffffffffffffffffffffffffffffffffffffffff168273ffffffffffffffffffffffffffffffffffffffff167fddf252ad1be2c89b69c2b068fc378daa952ba7f163c4a11628f55a4df523b3ef60405160405180910390a4809150509392505050565b6126c9838383612782565b61277d57600073ffffffffffffffffffffffffffffffffffffffff168373ffffffffffffffffffffffffffffffffffffffff160361273e57806040517f7e2732890000000000000000000000000000000000000000000000000000000081526004016127359190612c82565b60405180910390fd5b81816040517f177e802f0000000000000000000000000000000000000000000000000000000081526004016127749291906132dd565b60405180910390fd5b505050565b60008073ffffffffffffffffffffffffffffffffffffffff168373ffffffffffffffffffffffffffffffffffffffff161415801561283a57508273ffffffffffffffffffffffffffffffffffffffff168473ffffffffffffffffffffffffffffffffffffffff1614806127fb57506127fa8484611327565b5b8061283957508273ffffffffffffffffffffffffffffffffffffffff1661282183611678565b73ffffffffffffffffffffffffffffffffffffffff16145b5b90509392505050565b6000604051905090565b600080fd5b600080fd5b60007fffffffff0000000000000000000000000000000000000000000000000000000082169050919050565b61288c81612857565b811461289757600080fd5b50565b6000813590506128a981612883565b92915050565b6000602082840312156128c5576128c461284d565b5b60006128d38482850161289a565b91505092915050565b60008115159050919050565b6128f1816128dc565b82525050565b600060208201905061290c60008301846128e8565b92915050565b600081519050919050565b600082825260208201905092915050565b60005b8381101561294c578082015181840152602081019050612931565b60008484015250505050565b6000601f19601f8301169050919050565b600061297482612912565b61297e818561291d565b935061298e81856020860161292e565b61299781612958565b840191505092915050565b600060208201905081810360008301526129bc8184612969565b905092915050565b6000819050919050565b6129d7816129c4565b81146129e257600080fd5b50565b6000813590506129f4816129ce565b92915050565b600060208284031215612a1057612a0f61284d565b5b6000612a1e848285016129e5565b91505092915050565b600073ffffffffffffffffffffffffffffffffffffffff82169050919050565b6000612a5282612a27565b9050919050565b612a6281612a47565b82525050565b6000602082019050612a7d6000830184612a59565b92915050565b612a8c81612a47565b8114612a9757600080fd5b50565b600081359050612aa981612a83565b92915050565b60008060408385031215612ac657612ac561284d565b5b6000612ad485828601612a9a565b9250506020612ae5858286016129e5565b9150509250929050565b600080600060608486031215612b0857612b0761284d565b5b6000612b1686828701612a9a565b9350506020612b2786828701612a9a565b9250506040612b38868287016129e5565b9150509250925092565b6000819050919050565b612b5581612b42565b8114612b6057600080fd5b50565b600081359050612b7281612b4c565b92915050565b600060208284031215612b8e57612b8d61284d565b5b6000612b9c84828501612b63565b91505092915050565b612bae81612b42565b82525050565b6000602082019050612bc96000830184612ba5565b92915050565b60008060408385031215612be657612be561284d565b5b6000612bf485828601612b63565b9250506020612c0585828601612a9a565b9150509250929050565b600060ff82169050919050565b612c2581612c0f565b82525050565b6000602082019050612c406000830184612c1c565b92915050565b600060208284031215612c5c57612c5b61284d565b5b6000612c6a84828501612a9a565b91505092915050565b612c7c816129c4565b82525050565b6000602082019050612c976000830184612c73565b92915050565b612ca6816128dc565b8114612cb157600080fd5b50565b600081359050612cc381612c9d565b92915050565b60008060408385031215612ce057612cdf61284d565b5b6000612cee85828601612a9a565b9250506020612cff85828601612cb4565b9150509250929050565b600080fd5b600080fd5b7f4e487b7100000000000000000000000000000000000000000000000000000000600052604160045260246000fd5b612d4b82612958565b810181811067ffffffffffffffff82111715612d6a57612d69612d13565b5b80604052505050565b6000612d7d612843565b9050612d898282612d42565b919050565b600067ffffffffffffffff821115612da957612da8612d13565b5b612db282612958565b9050602081019050919050565b82818337600083830152505050565b6000612de1612ddc84612d8e565b612d73565b905082815260208101848484011115612dfd57612dfc612d0e565b5b612e08848285612dbf565b509392505050565b600082601f830112612e2557612e24612d09565b5b8135612e35848260208601612dce565b91505092915050565b60008060008060808587031215612e5857612e5761284d565b5b6000612e6687828801612a9a565b9450506020612e7787828801612a9a565b9350506040612e88878288016129e5565b925050606085013567ffffffffffffffff811115612ea957612ea8612852565b5b612eb587828801612e10565b91505092959194509250565b6000604082019050612ed66000830185612a59565b612ee36020830184612ba5565b9392505050565b60008060408385031215612f0157612f0061284d565b5b6000612f0f85828601612a9a565b9250506020612f2085828601612a9a565b9150509250929050565b7f4e487b7100000000000000000000000000000000000000000000000000000000600052602260045260246000fd5b60006002820490506001821680612f7157607f821691505b602082108103612f8457612f83612f2a565b5b50919050565b6000606082019050612f9f6000830186612a59565b612fac6020830185612c73565b612fb96040830184612a59565b949350505050565b600081905092915050565b6000612fd782612912565b612fe18185612fc1565b9350612ff181856020860161292e565b80840191505092915050565b60006130098285612fcc565b91506130158284612fcc565b91508190509392505050565b7f496e73756666696369656e74204554482073656e740000000000000000000000600082015250565b600061305760158361291d565b915061306282613021565b602082019050919050565b600060208201905081810360008301526130868161304a565b9050919050565b7f4e487b7100000000000000000000000000000000000000000000000000000000600052601160045260246000fd5b60006130c7826129c4565b91506130d2836129c4565b92508282026130e0816129c4565b915082820484148315176130f7576130f661308d565b5b5092915050565b7f4e487b7100000000000000000000000000000000000000000000000000000000600052601260045260246000fd5b6000613138826129c4565b9150613143836129c4565b925082613153576131526130fe565b5b828204905092915050565b6000613169826129c4565b9150613174836129c4565b925082820190508082111561318c5761318b61308d565b5b92915050565b61319b81612a47565b82525050565b6131aa81612b42565b82525050565b6040820160008201516131c66000850182613192565b5060208201516131d960208501826131a1565b50505050565b60006040820190506131f460008301846131b0565b92915050565b600081519050919050565b600082825260208201905092915050565b6000613221826131fa565b61322b8185613205565b935061323b81856020860161292e565b61324481612958565b840191505092915050565b60006080820190506132646000830187612a59565b6132716020830186612a59565b61327e6040830185612c73565b81810360608301526132908184613216565b905095945050505050565b6000815190506132aa81612883565b92915050565b6000602082840312156132c6576132c561284d565b5b60006132d48482850161329b565b91505092915050565b60006040820190506132f26000830185612a59565b6132ff6020830184612c73565b939250505056fea26469706673582212209ecf30d7987431bcefb452cc0c0e694dc6784a7af6949963e4b8df152aae96d464736f6c634300081a0033",
  "linkReferences": {},
  "deployedLinkReferences": {}
}