{
  "_format": "hh-sol-artifact-1",
  "contractName": "ThetaCollectibles",
  "sourceName": "contracts/ThetaCollectibles.sol",
  "abi": [
    {
      "inputs": [
        {
          "internalType": "address payable",
          "name": "_reflectionPoolAddress",
          "type": "address"
        },
        {
          "internalType": "address payable",
          "name": "_birthdayBabyPoolAddress",
          "type": "address"
        },
        {
          "internalType": "address payable",
          "name": "_houseFeeAddress",
          "type": "address"
        }
      ],
      "stateMutability": "nonpayable",
      "type": "constructor"
    },
    {
      "inputs": [],
      "name": "AccessControlBadConfirmation",
      "type": "error"
    },
    {
      "inputs": [
        {
          "internalType": "address",
          "name": "account",
          "type": "address"
        },
        {
          "internalType": "bytes32",
          "name": "neededRole",
          "type": "bytes32"
        }
      ],
      "name": "AccessControlUnauthorizedAccount",
      "type": "error"
    },
    {
      "inputs": [
        {
          "internalType": "address",
          "name": "sender",
          "type": "address"
        },
        {
          "internalType": "uint256",
          "name": "tokenId",
          "type": "uint256"
        },
        {
          "internalType": "address",
          "name": "owner",
          "type": "address"
        }
      ],
      "name": "ERC721IncorrectOwner",
      "type": "error"
    },
    {
      "inputs": [
        {
          "internalType": "address",
          "name": "operator",
          "type": "address"
        },
        {
          "internalType": "uint256",
          "name": "tokenId",
          "type": "uint256"
        }
      ],
      "name": "ERC721InsufficientApproval",
      "type": "error"
    },
    {
      "inputs": [
        {
          "internalType": "address",
          "name": "approver",
          "type": "address"
        }
      ],
      "name": "ERC721InvalidApprover",
      "type": "error"
    },
    {
      "inputs": [
        {
          "internalType": "address",
          "name": "operator",
          "type": "address"
        }
      ],
      "name": "ERC721InvalidOperator",
      "type": "error"
    },
    {
      "inputs": [
        {
          "internalType": "address",
          "name": "owner",
          "type": "address"
        }
      ],
      "name": "ERC721InvalidOwner",
      "type": "error"
    },
    {
      "inputs": [
        {
          "internalType": "address",
          "name": "receiver",
          "type": "address"
        }
      ],
      "name": "ERC721InvalidReceiver",
      "type": "error"
    },
    {
      "inputs": [
        {
          "internalType": "address",
          "name": "sender",
          "type": "address"
        }
      ],
      "name": "ERC721InvalidSender",
      "type": "error"
    },
    {
      "inputs": [
        {
          "internalType": "uint256",
          "name": "tokenId",
          "type": "uint256"
        }
      ],
      "name": "ERC721NonexistentToken",
      "type": "error"
    },
    {
      "inputs": [],
      "name": "EnforcedPause",
      "type": "error"
    },
    {
      "inputs": [],
      "name": "ExpectedPause",
      "type": "error"
    },
    {
      "inputs": [
        {
          "internalType": "address",
          "name": "owner",
          "type": "address"
        }
      ],
      "name": "OwnableInvalidOwner",
      "type": "error"
    },
    {
      "inputs": [
        {
          "internalType": "address",
          "name": "account",
          "type": "address"
        }
      ],
      "name": "OwnableUnauthorizedAccount",
      "type": "error"
    },
    {
      "anonymous": false,
      "inputs": [
        {
          "indexed": true,
          "internalType": "address",
          "name": "owner",
          "type": "address"
        },
        {
          "indexed": true,
          "internalType": "address",
          "name": "approved",
          "type": "address"
        },
        {
          "indexed": true,
          "internalType": "uint256",
          "name": "tokenId",
          "type": "uint256"
        }
      ],
      "name": "Approval",
      "type": "event"
    },
    {
      "anonymous": false,
      "inputs": [
        {
          "indexed": true,
          "internalType": "address",
          "name": "owner",
          "type": "address"
        },
        {
          "indexed": true,
          "internalType": "address",
          "name": "operator",
          "type": "address"
        },
        {
          "indexed": false,
          "internalType": "bool",
          "name": "approved",
          "type": "bool"
        }
      ],
      "name": "ApprovalForAll",
      "type": "event"
    },
    {
      "anonymous": false,
      "inputs": [
        {
          "indexed": true,
          "internalType": "address",
          "name": "owner",
          "type": "address"
        },
        {
          "indexed": true,
          "internalType": "uint256",
          "name": "tokenId",
          "type": "uint256"
        },
        {
          "components": [
            {
              "internalType": "bytes32",
              "name": "url",
              "type": "bytes32"
            },
            {
              "internalType": "address",
              "name": "owner",
              "type": "address"
            }
          ],
          "indexed": false,
          "internalType": "struct ThetaCollectibles.AstroData",
          "name": "",
          "type": "tuple"
        }
      ],
      "name": "NFTGifted",
      "type": "event"
    },
    {
      "anonymous": false,
      "inputs": [
        {
          "indexed": true,
          "internalType": "address",
          "name": "previousOwner",
          "type": "address"
        },
        {
          "indexed": true,
          "internalType": "address",
          "name": "newOwner",
          "type": "address"
        }
      ],
      "name": "OwnershipTransferred",
      "type": "event"
    },
    {
      "anonymous": false,
      "inputs": [
        {
          "indexed": false,
          "internalType": "address",
          "name": "account",
          "type": "address"
        }
      ],
      "name": "Paused",
      "type": "event"
    },
    {
      "anonymous": false,
      "inputs": [
        {
          "indexed": true,
          "internalType": "bytes32",
          "name": "role",
          "type": "bytes32"
        },
        {
          "indexed": true,
          "internalType": "bytes32",
          "name": "previousAdminRole",
          "type": "bytes32"
        },
        {
          "indexed": true,
          "internalType": "bytes32",
          "name": "newAdminRole",
          "type": "bytes32"
        }
      ],
      "name": "RoleAdminChanged",
      "type": "event"
    },
    {
      "anonymous": false,
      "inputs": [
        {
          "indexed": true,
          "internalType": "bytes32",
          "name": "role",
          "type": "bytes32"
        },
        {
          "indexed": true,
          "internalType": "address",
          "name": "account",
          "type": "address"
        },
        {
          "indexed": true,
          "internalType": "address",
          "name": "sender",
          "type": "address"
        }
      ],
      "name": "RoleGranted",
      "type": "event"
    },
    {
      "anonymous": false,
      "inputs": [
        {
          "indexed": true,
          "internalType": "bytes32",
          "name": "role",
          "type": "bytes32"
        },
        {
          "indexed": true,
          "internalType": "address",
          "name": "account",
          "type": "address"
        },
        {
          "indexed": true,
          "internalType": "address",
          "name": "sender",
          "type": "address"
        }
      ],
      "name": "RoleRevoked",
      "type": "event"
    },
    {
      "anonymous": false,
      "inputs": [
        {
          "indexed": true,
          "internalType": "address",
          "name": "owner",
          "type": "address"
        },
        {
          "indexed": true,
          "internalType": "uint256",
          "name": "tokenId",
          "type": "uint256"
        },
        {
          "components": [
            {
              "internalType": "bytes32",
              "name": "url",
              "type": "bytes32"
            },
            {
              "internalType": "address",
              "name": "owner",
              "type": "address"
            }
          ],
          "indexed": false,
          "internalType": "struct ThetaCollectibles.AstroData",
          "name": "",
          "type": "tuple"
        }
      ],
      "name": "ThetaMinted",
      "type": "event"
    },
    {
      "anonymous": false,
      "inputs": [
        {
          "indexed": true,
          "internalType": "address",
          "name": "from",
          "type": "address"
        },
        {
          "indexed": true,
          "internalType": "address",
          "name": "to",
          "type": "address"
        },
        {
          "indexed": true,
          "internalType": "uint256",
          "name": "tokenId",
          "type": "uint256"
        }
      ],
      "name": "Transfer",
      "type": "event"
    },
    {
      "anonymous": false,
      "inputs": [
        {
          "indexed": false,
          "internalType": "address",
          "name": "account",
          "type": "address"
        }
      ],
      "name": "Unpaused",
      "type": "event"
    },
    {
      "inputs": [],
      "name": "DEFAULT_ADMIN_ROLE",
      "outputs": [
        {
          "internalType": "bytes32",
          "name": "",
          "type": "bytes32"
        }
      ],
      "stateMutability": "view",
      "type": "function"
    },
    {
      "inputs": [],
      "name": "MINTER_ROLE",
      "outputs": [
        {
          "internalType": "bytes32",
          "name": "",
          "type": "bytes32"
        }
      ],
      "stateMutability": "view",
      "type": "function"
    },
    {
      "inputs": [],
      "name": "MINT_PRICE",
      "outputs": [
        {
          "internalType": "uint256",
          "name": "",
          "type": "uint256"
        }
      ],
      "stateMutability": "view",
      "type": "function"
    },
    {
      "inputs": [],
      "name": "PAUSER_ROLE",
      "outputs": [
        {
          "internalType": "bytes32",
          "name": "",
          "type": "bytes32"
        }
      ],
      "stateMutability": "view",
      "type": "function"
    },
    {
      "inputs": [
        {
          "internalType": "address",
          "name": "to",
          "type": "address"
        },
        {
          "internalType": "uint256",
          "name": "tokenId",
          "type": "uint256"
        }
      ],
      "name": "approve",
      "outputs": [],
      "stateMutability": "nonpayable",
      "type": "function"
    },
    {
      "inputs": [
        {
          "internalType": "uint256",
          "name": "",
          "type": "uint256"
        }
      ],
      "name": "astroData",
      "outputs": [
        {
          "internalType": "bytes32",
          "name": "url",
          "type": "bytes32"
        },
        {
          "internalType": "address",
          "name": "owner",
          "type": "address"
        }
      ],
      "stateMutability": "view",
      "type": "function"
    },
    {
      "inputs": [
        {
          "internalType": "address",
          "name": "owner",
          "type": "address"
        }
      ],
      "name": "balanceOf",
      "outputs": [
        {
          "internalType": "uint256",
          "name": "",
          "type": "uint256"
        }
      ],
      "stateMutability": "view",
      "type": "function"
    },
    {
      "inputs": [
        {
          "internalType": "bytes32",
          "name": "",
          "type": "bytes32"
        }
      ],
      "name": "birthDateStruct",
      "outputs": [
        {
          "internalType": "address",
          "name": "lastUser",
          "type": "address"
        },
        {
          "internalType": "bytes32",
          "name": "birthdate",
          "type": "bytes32"
        },
        {
          "internalType": "uint256",
          "name": "counter",
          "type": "uint256"
        }
      ],
      "stateMutability": "view",
      "type": "function"
    },
    {
      "inputs": [
        {
          "internalType": "uint256",
          "name": "tokenId",
          "type": "uint256"
        }
      ],
      "name": "getApproved",
      "outputs": [
        {
          "internalType": "address",
          "name": "",
          "type": "address"
        }
      ],
      "stateMutability": "view",
      "type": "function"
    },
    {
      "inputs": [],
      "name": "getMinterRole",
      "outputs": [],
      "stateMutability": "nonpayable",
      "type": "function"
    },
    {
      "inputs": [
        {
          "internalType": "bytes32",
          "name": "role",
          "type": "bytes32"
        }
      ],
      "name": "getRoleAdmin",
      "outputs": [
        {
          "internalType": "bytes32",
          "name": "",
          "type": "bytes32"
        }
      ],
      "stateMutability": "view",
      "type": "function"
    },
    {
      "inputs": [
        {
          "internalType": "bytes32",
          "name": "role",
          "type": "bytes32"
        },
        {
          "internalType": "address",
          "name": "account",
          "type": "address"
        }
      ],
      "name": "grantRole",
      "outputs": [],
      "stateMutability": "nonpayable",
      "type": "function"
    },
    {
      "inputs": [
        {
          "internalType": "bytes32",
          "name": "role",
          "type": "bytes32"
        },
        {
          "internalType": "address",
          "name": "account",
          "type": "address"
        }
      ],
      "name": "hasRole",
      "outputs": [
        {
          "internalType": "bool",
          "name": "",
          "type": "bool"
        }
      ],
      "stateMutability": "view",
      "type": "function"
    },
    {
      "inputs": [
        {
          "internalType": "address",
          "name": "owner",
          "type": "address"
        },
        {
          "internalType": "address",
          "name": "operator",
          "type": "address"
        }
      ],
      "name": "isApprovedForAll",
      "outputs": [
        {
          "internalType": "bool",
          "name": "",
          "type": "bool"
        }
      ],
      "stateMutability": "view",
      "type": "function"
    },
    {
      "inputs": [
        {
          "internalType": "address",
          "name": "",
          "type": "address"
        }
      ],
      "name": "isBirthdaySet",
      "outputs": [
        {
          "internalType": "bool",
          "name": "",
          "type": "bool"
        }
      ],
      "stateMutability": "view",
      "type": "function"
    },
    {
      "inputs": [
        {
          "internalType": "bytes32",
          "name": "url",
          "type": "bytes32"
        },
        {
          "internalType": "bytes32",
          "name": "birthdate",
          "type": "bytes32"
        }
      ],
      "name": "mintTheta",
      "outputs": [],
      "stateMutability": "payable",
      "type": "function"
    },
    {
      "inputs": [],
      "name": "name",
      "outputs": [
        {
          "internalType": "string",
          "name": "",
          "type": "string"
        }
      ],
      "stateMutability": "view",
      "type": "function"
    },
    {
      "inputs": [],
      "name": "owner",
      "outputs": [
        {
          "internalType": "address",
          "name": "",
          "type": "address"
        }
      ],
      "stateMutability": "view",
      "type": "function"
    },
    {
      "inputs": [
        {
          "internalType": "uint256",
          "name": "tokenId",
          "type": "uint256"
        }
      ],
      "name": "ownerOf",
      "outputs": [
        {
          "internalType": "address",
          "name": "",
          "type": "address"
        }
      ],
      "stateMutability": "view",
      "type": "function"
    },
    {
      "inputs": [],
      "name": "pause",
      "outputs": [],
      "stateMutability": "nonpayable",
      "type": "function"
    },
    {
      "inputs": [],
      "name": "paused",
      "outputs": [
        {
          "internalType": "bool",
          "name": "",
          "type": "bool"
        }
      ],
      "stateMutability": "view",
      "type": "function"
    },
    {
      "inputs": [],
      "name": "renounceOwnership",
      "outputs": [],
      "stateMutability": "nonpayable",
      "type": "function"
    },
    {
      "inputs": [
        {
          "internalType": "bytes32",
          "name": "role",
          "type": "bytes32"
        },
        {
          "internalType": "address",
          "name": "callerConfirmation",
          "type": "address"
        }
      ],
      "name": "renounceRole",
      "outputs": [],
      "stateMutability": "nonpayable",
      "type": "function"
    },
    {
      "inputs": [
        {
          "internalType": "bytes32",
          "name": "role",
          "type": "bytes32"
        },
        {
          "internalType": "address",
          "name": "account",
          "type": "address"
        }
      ],
      "name": "revokeRole",
      "outputs": [],
      "stateMutability": "nonpayable",
      "type": "function"
    },
    {
      "inputs": [
        {
          "internalType": "address",
          "name": "from",
          "type": "address"
        },
        {
          "internalType": "address",
          "name": "to",
          "type": "address"
        },
        {
          "internalType": "uint256",
          "name": "tokenId",
          "type": "uint256"
        }
      ],
      "name": "safeTransferFrom",
      "outputs": [],
      "stateMutability": "nonpayable",
      "type": "function"
    },
    {
      "inputs": [
        {
          "internalType": "address",
          "name": "from",
          "type": "address"
        },
        {
          "internalType": "address",
          "name": "to",
          "type": "address"
        },
        {
          "internalType": "uint256",
          "name": "tokenId",
          "type": "uint256"
        },
        {
          "internalType": "bytes",
          "name": "data",
          "type": "bytes"
        }
      ],
      "name": "safeTransferFrom",
      "outputs": [],
      "stateMutability": "nonpayable",
      "type": "function"
    },
    {
      "inputs": [
        {
          "internalType": "address",
          "name": "operator",
          "type": "address"
        },
        {
          "internalType": "bool",
          "name": "approved",
          "type": "bool"
        }
      ],
      "name": "setApprovalForAll",
      "outputs": [],
      "stateMutability": "nonpayable",
      "type": "function"
    },
    {
      "inputs": [
        {
          "internalType": "bytes4",
          "name": "interfaceId",
          "type": "bytes4"
        }
      ],
      "name": "supportsInterface",
      "outputs": [
        {
          "internalType": "bool",
          "name": "",
          "type": "bool"
        }
      ],
      "stateMutability": "view",
      "type": "function"
    },
    {
      "inputs": [],
      "name": "symbol",
      "outputs": [
        {
          "internalType": "string",
          "name": "",
          "type": "string"
        }
      ],
      "stateMutability": "view",
      "type": "function"
    },
    {
      "inputs": [
        {
          "internalType": "uint256",
          "name": "tokenId",
          "type": "uint256"
        }
      ],
      "name": "tokenURI",
      "outputs": [
        {
          "internalType": "string",
          "name": "",
          "type": "string"
        }
      ],
      "stateMutability": "view",
      "type": "function"
    },
    {
      "inputs": [
        {
          "internalType": "address",
          "name": "from",
          "type": "address"
        },
        {
          "internalType": "address",
          "name": "to",
          "type": "address"
        },
        {
          "internalType": "uint256",
          "name": "tokenId",
          "type": "uint256"
        }
      ],
      "name": "transferFrom",
      "outputs": [],
      "stateMutability": "nonpayable",
      "type": "function"
    },
    {
      "inputs": [
        {
          "internalType": "address",
          "name": "newOwner",
          "type": "address"
        }
      ],
      "name": "transferOwnership",
      "outputs": [],
      "stateMutability": "nonpayable",
      "type": "function"
    },
    {
      "inputs": [],
      "name": "unpause",
      "outputs": [],
      "stateMutability": "nonpayable",
      "type": "function"
    },
    {
      "inputs": [
        {
          "internalType": "address",
          "name": "",
          "type": "address"
        }
      ],
      "name": "userBirthdays",
      "outputs": [
        {
          "internalType": "uint256",
          "name": "",
          "type": "uint256"
        }
      ],
      "stateMutability": "view",
      "type": "function"
    }
  ],
  "bytecode": "0x608060405234801561001057600080fd5b5060405161423b38038061423b83398181016040528101906100329190610508565b336040518060400160405280601181526020017f5468657461436f6c6c65637469626c65730000000000000000000000000000008152506040518060400160405280600581526020017f544845544100000000000000000000000000000000000000000000000000000081525081600090816100ae91906107ab565b5080600190816100be91906107ab565b5050506000600660006101000a81548160ff021916908315150217905550600073ffffffffffffffffffffffffffffffffffffffff168173ffffffffffffffffffffffffffffffffffffffff160361014e5760006040517f1e4fbdf7000000000000000000000000000000000000000000000000000000008152600401610145919061089e565b60405180910390fd5b61015d8161026e60201b60201c565b5082600a60006101000a81548173ffffffffffffffffffffffffffffffffffffffff021916908373ffffffffffffffffffffffffffffffffffffffff16021790555081600b60006101000a81548173ffffffffffffffffffffffffffffffffffffffff021916908373ffffffffffffffffffffffffffffffffffffffff16021790555080600c60006101000a81548173ffffffffffffffffffffffffffffffffffffffff021916908373ffffffffffffffffffffffffffffffffffffffff1602179055506102346000801b3361033460201b60201c565b506102657f65d7a28e3265b37a6474929f336521b332c1681b933f6cb9f3376673440d862a3361033460201b60201c565b505050506108b9565b6000600860009054906101000a900473ffffffffffffffffffffffffffffffffffffffff16905081600860006101000a81548173ffffffffffffffffffffffffffffffffffffffff021916908373ffffffffffffffffffffffffffffffffffffffff1602179055508173ffffffffffffffffffffffffffffffffffffffff168173ffffffffffffffffffffffffffffffffffffffff167f8be0079c531659141344cd1fd0a4f28419497f9722a3daafe3b4186f6b6457e060405160405180910390a35050565b6000610346838361043260201b60201c565b6104275760016007600085815260200190815260200160002060000160008473ffffffffffffffffffffffffffffffffffffffff1673ffffffffffffffffffffffffffffffffffffffff16815260200190815260200160002060006101000a81548160ff0219169083151502179055506103c461049d60201b60201c565b73ffffffffffffffffffffffffffffffffffffffff168273ffffffffffffffffffffffffffffffffffffffff16847f2f8788117e7eff1d82e926ec794901d17c78024a50270940304540a733656f0d60405160405180910390a46001905061042c565b600090505b92915050565b60006007600084815260200190815260200160002060000160008373ffffffffffffffffffffffffffffffffffffffff1673ffffffffffffffffffffffffffffffffffffffff16815260200190815260200160002060009054906101000a900460ff16905092915050565b600033905090565b600080fd5b600073ffffffffffffffffffffffffffffffffffffffff82169050919050565b60006104d5826104aa565b9050919050565b6104e5816104ca565b81146104f057600080fd5b50565b600081519050610502816104dc565b92915050565b600080600060608486031215610521576105206104a5565b5b600061052f868287016104f3565b9350506020610540868287016104f3565b9250506040610551868287016104f3565b9150509250925092565b600081519050919050565b7f4e487b7100000000000000000000000000000000000000000000000000000000600052604160045260246000fd5b7f4e487b7100000000000000000000000000000000000000000000000000000000600052602260045260246000fd5b600060028204905060018216806105dc57607f821691505b6020821081036105ef576105ee610595565b5b50919050565b60008190508160005260206000209050919050565b60006020601f8301049050919050565b600082821b905092915050565b6000600883026106577fffffffffffffffffffffffffffffffffffffffffffffffffffffffffffffffff8261061a565b610661868361061a565b95508019841693508086168417925050509392505050565b6000819050919050565b6000819050919050565b60006106a86106a361069e84610679565b610683565b610679565b9050919050565b6000819050919050565b6106c28361068d565b6106d66106ce826106af565b848454610627565b825550505050565b600090565b6106eb6106de565b6106f68184846106b9565b505050565b5b8181101561071a5761070f6000826106e3565b6001810190506106fc565b5050565b601f82111561075f57610730816105f5565b6107398461060a565b81016020851015610748578190505b61075c6107548561060a565b8301826106fb565b50505b505050565b600082821c905092915050565b600061078260001984600802610764565b1980831691505092915050565b600061079b8383610771565b9150826002028217905092915050565b6107b48261055b565b67ffffffffffffffff8111156107cd576107cc610566565b5b6107d782546105c4565b6107e282828561071e565b600060209050601f8311600181146108155760008415610803578287015190505b61080d858261078f565b865550610875565b601f198416610823866105f5565b60005b8281101561084b57848901518255600182019150602085019450602081019050610826565b868310156108685784890151610864601f891682610771565b8355505b6001600288020188555050505b505050505050565b6000610888826104aa565b9050919050565b6108988161087d565b82525050565b60006020820190506108b3600083018461088f565b92915050565b613973806108c86000396000f3fe6080604052600436106101f95760003560e01c806391d148541161010d578063c002d23d116100a0578063e63ab1e91161006f578063e63ab1e914610738578063e7e80e2a14610763578063e985e9c5146107a1578063ea35f36c146107de578063f2fde38b146107f5576101f9565b8063c002d23d1461067c578063c87b56dd146106a7578063d5391393146106e4578063d547741f1461070f576101f9565b8063a217fddf116100dc578063a217fddf146105e3578063a22cb4651461060e578063ad38974014610637578063b88d4fde14610653576101f9565b806391d148541461050157806394991ffd1461053e57806395d89b411461057b5780639e981872146105a6576101f9565b80633f4ba83a1161019057806370a082311161015f57806370a082311461042c578063715018a61461046957806372295ff1146104805780638456cb59146104bf5780638da5cb5b146104d6576101f9565b80633f4ba83a1461038457806342842e0e1461039b5780635c975abb146103c45780636352211e146103ef576101f9565b806323b872dd116101cc57806323b872dd146102cc578063248a9ca3146102f55780632f2ff15d1461033257806336568abe1461035b576101f9565b806301ffc9a7146101fe57806306fdde031461023b578063081812fc14610266578063095ea7b3146102a3575b600080fd5b34801561020a57600080fd5b5061022560048036038101906102209190612dc9565b61081e565b6040516102329190612e11565b60405180910390f35b34801561024757600080fd5b50610250610840565b60405161025d9190612ebc565b60405180910390f35b34801561027257600080fd5b5061028d60048036038101906102889190612f14565b6108d2565b60405161029a9190612f82565b60405180910390f35b3480156102af57600080fd5b506102ca60048036038101906102c59190612fc9565b6108ee565b005b3480156102d857600080fd5b506102f360048036038101906102ee9190613009565b610904565b005b34801561030157600080fd5b5061031c60048036038101906103179190613092565b610a06565b60405161032991906130ce565b60405180910390f35b34801561033e57600080fd5b50610359600480360381019061035491906130e9565b610a26565b005b34801561036757600080fd5b50610382600480360381019061037d91906130e9565b610a48565b005b34801561039057600080fd5b50610399610ac3565b005b3480156103a757600080fd5b506103c260048036038101906103bd9190613009565b610af8565b005b3480156103d057600080fd5b506103d9610b18565b6040516103e69190612e11565b60405180910390f35b3480156103fb57600080fd5b5061041660048036038101906104119190612f14565b610b2f565b6040516104239190612f82565b60405180910390f35b34801561043857600080fd5b50610453600480360381019061044e9190613129565b610b41565b6040516104609190613165565b60405180910390f35b34801561047557600080fd5b5061047e610bfb565b005b34801561048c57600080fd5b506104a760048036038101906104a29190613092565b610c0f565b6040516104b693929190613180565b60405180910390f35b3480156104cb57600080fd5b506104d4610c59565b005b3480156104e257600080fd5b506104eb610c8e565b6040516104f89190612f82565b60405180910390f35b34801561050d57600080fd5b50610528600480360381019061052391906130e9565b610cb8565b6040516105359190612e11565b60405180910390f35b34801561054a57600080fd5b5061056560048036038101906105609190613129565b610d23565b6040516105729190613165565b60405180910390f35b34801561058757600080fd5b50610590610d3b565b60405161059d9190612ebc565b60405180910390f35b3480156105b257600080fd5b506105cd60048036038101906105c89190613129565b610dcd565b6040516105da9190612e11565b60405180910390f35b3480156105ef57600080fd5b506105f8610ded565b60405161060591906130ce565b60405180910390f35b34801561061a57600080fd5b50610635600480360381019061063091906131e3565b610df4565b005b610651600480360381019061064c9190613223565b610e0a565b005b34801561065f57600080fd5b5061067a60048036038101906106759190613398565b6112f0565b005b34801561068857600080fd5b5061069161130d565b60405161069e9190613165565b60405180910390f35b3480156106b357600080fd5b506106ce60048036038101906106c99190612f14565b611318565b6040516106db9190612ebc565b60405180910390f35b3480156106f057600080fd5b506106f9611381565b60405161070691906130ce565b60405180910390f35b34801561071b57600080fd5b50610736600480360381019061073191906130e9565b6113a5565b005b34801561074457600080fd5b5061074d6113c7565b60405161075a91906130ce565b60405180910390f35b34801561076f57600080fd5b5061078a60048036038101906107859190612f14565b6113eb565b60405161079892919061341b565b60405180910390f35b3480156107ad57600080fd5b506107c860048036038101906107c39190613444565b61142f565b6040516107d59190612e11565b60405180910390f35b3480156107ea57600080fd5b506107f36114c3565b005b34801561080157600080fd5b5061081c60048036038101906108179190613129565b6114f0565b005b600061082982611576565b80610839575061083882611658565b5b9050919050565b60606000805461084f906134b3565b80601f016020809104026020016040519081016040528092919081815260200182805461087b906134b3565b80156108c85780601f1061089d576101008083540402835291602001916108c8565b820191906000526020600020905b8154815290600101906020018083116108ab57829003601f168201915b5050505050905090565b60006108dd826116d2565b506108e78261175a565b9050919050565b61090082826108fb611797565b61179f565b5050565b600073ffffffffffffffffffffffffffffffffffffffff168273ffffffffffffffffffffffffffffffffffffffff16036109765760006040517f64a0ae9200000000000000000000000000000000000000000000000000000000815260040161096d9190612f82565b60405180910390fd5b600061098a8383610985611797565b6117b1565b90508373ffffffffffffffffffffffffffffffffffffffff168173ffffffffffffffffffffffffffffffffffffffff1614610a00578382826040517f64283d7b0000000000000000000000000000000000000000000000000000000081526004016109f7939291906134e4565b60405180910390fd5b50505050565b600060076000838152602001908152602001600020600101549050919050565b610a2f82610a06565b610a38816117c7565b610a4283836117db565b50505050565b610a50611797565b73ffffffffffffffffffffffffffffffffffffffff168173ffffffffffffffffffffffffffffffffffffffff1614610ab4576040517f6697b23200000000000000000000000000000000000000000000000000000000815260040160405180910390fd5b610abe82826118cd565b505050565b7f65d7a28e3265b37a6474929f336521b332c1681b933f6cb9f3376673440d862a610aed816117c7565b610af56119c0565b50565b610b13838383604051806020016040528060008152506112f0565b505050565b6000600660009054906101000a900460ff16905090565b6000610b3a826116d2565b9050919050565b60008073ffffffffffffffffffffffffffffffffffffffff168273ffffffffffffffffffffffffffffffffffffffff1603610bb45760006040517f89c62b64000000000000000000000000000000000000000000000000000000008152600401610bab9190612f82565b60405180910390fd5b600360008373ffffffffffffffffffffffffffffffffffffffff1673ffffffffffffffffffffffffffffffffffffffff168152602001908152602001600020549050919050565b610c03611a23565b610c0d6000611aaa565b565b600d6020528060005260406000206000915090508060000160009054906101000a900473ffffffffffffffffffffffffffffffffffffffff16908060010154908060020154905083565b7f65d7a28e3265b37a6474929f336521b332c1681b933f6cb9f3376673440d862a610c83816117c7565b610c8b611b70565b50565b6000600860009054906101000a900473ffffffffffffffffffffffffffffffffffffffff16905090565b60006007600084815260200190815260200160002060000160008373ffffffffffffffffffffffffffffffffffffffff1673ffffffffffffffffffffffffffffffffffffffff16815260200190815260200160002060009054906101000a900460ff16905092915050565b600e6020528060005260406000206000915090505481565b606060018054610d4a906134b3565b80601f0160208091040260200160405190810160405280929190818152602001828054610d76906134b3565b8015610dc35780601f10610d9857610100808354040283529160200191610dc3565b820191906000526020600020905b815481529060010190602001808311610da657829003601f168201915b5050505050905090565b600f6020528060005260406000206000915054906101000a900460ff1681565b6000801b81565b610e06610dff611797565b8383611bd3565b5050565b7f9f2df0fed2c77648de5860a4cc508cd0818c85b8b8a1ab4ceeef8d981c8956a6610e34816117c7565b600f60003373ffffffffffffffffffffffffffffffffffffffff1673ffffffffffffffffffffffffffffffffffffffff16815260200190815260200160002060009054906101000a900460ff1615610ec1576040517f08c379a0000000000000000000000000000000000000000000000000000000008152600401610eb890613567565b60405180910390fd5b6603e871b540c000341015610f0b576040517f08c379a0000000000000000000000000000000000000000000000000000000008152600401610f02906135d3565b60405180910390fd5b60006064600f60ff1634610f1f9190613622565b610f299190613693565b905060006064600560ff1683610f3f9190613622565b610f499190613693565b905060006064600560ff1684610f5f9190613622565b610f699190613693565b905060006064600560ff1685610f7f9190613622565b610f899190613693565b905060008434610f9991906136c4565b9050600a60009054906101000a900473ffffffffffffffffffffffffffffffffffffffff1673ffffffffffffffffffffffffffffffffffffffff166108fc859081150290604051600060405180830381858888f19350505050158015611003573d6000803e3d6000fd5b50600b60009054906101000a900473ffffffffffffffffffffffffffffffffffffffff1673ffffffffffffffffffffffffffffffffffffffff166108fc849081150290604051600060405180830381858888f1935050505015801561106c573d6000803e3d6000fd5b50600c60009054906101000a900473ffffffffffffffffffffffffffffffffffffffff1673ffffffffffffffffffffffffffffffffffffffff166108fc839081150290604051600060405180830381858888f193505050501580156110d5573d6000803e3d6000fd5b506110de610c8e565b73ffffffffffffffffffffffffffffffffffffffff166108fc829081150290604051600060405180830381858888f19350505050158015611123573d6000803e3d6000fd5b50600060096000815480929190611139906136f8565b9190505590506111493382611d42565b60405180604001604052808a81526020013373ffffffffffffffffffffffffffffffffffffffff16815250601060008381526020019081526020016000206000820151816000015560208201518160010160006101000a81548173ffffffffffffffffffffffffffffffffffffffff021916908373ffffffffffffffffffffffffffffffffffffffff1602179055509050506001600f60003373ffffffffffffffffffffffffffffffffffffffff1673ffffffffffffffffffffffffffffffffffffffff16815260200190815260200160002060006101000a81548160ff021916908315150217905550803373ffffffffffffffffffffffffffffffffffffffff167f943a7955793829f843566ad36b12e05ecfea874283ed9658c9fab793328d280760405180604001604052808d81526020013373ffffffffffffffffffffffffffffffffffffffff168152506040516112a4919061378d565b60405180910390a36000600d60008a815260200190815260200160002060020154146112da576112d5886000611e3b565b6112e5565b6112e388611fa1565b505b505050505050505050565b6112fb848484610904565b61130784848484612104565b50505050565b6603e871b540c00081565b6060611323826116d2565b50600061132e6122bb565b9050600081511161134e5760405180602001604052806000815250611379565b80611358846122d2565b6040516020016113699291906137e4565b6040516020818303038152906040525b915050919050565b7f9f2df0fed2c77648de5860a4cc508cd0818c85b8b8a1ab4ceeef8d981c8956a681565b6113ae82610a06565b6113b7816117c7565b6113c183836118cd565b50505050565b7f65d7a28e3265b37a6474929f336521b332c1681b933f6cb9f3376673440d862a81565b60106020528060005260406000206000915090508060000154908060010160009054906101000a900473ffffffffffffffffffffffffffffffffffffffff16905082565b6000600560008473ffffffffffffffffffffffffffffffffffffffff1673ffffffffffffffffffffffffffffffffffffffff16815260200190815260200160002060008373ffffffffffffffffffffffffffffffffffffffff1673ffffffffffffffffffffffffffffffffffffffff16815260200190815260200160002060009054906101000a900460ff16905092915050565b6114ed7f9f2df0fed2c77648de5860a4cc508cd0818c85b8b8a1ab4ceeef8d981c8956a6336117db565b50565b6114f8611a23565b600073ffffffffffffffffffffffffffffffffffffffff168173ffffffffffffffffffffffffffffffffffffffff160361156a5760006040517f1e4fbdf70000000000000000000000000000000000000000000000000000000081526004016115619190612f82565b60405180910390fd5b61157381611aaa565b50565b60007f80ac58cd000000000000000000000000000000000000000000000000000000007bffffffffffffffffffffffffffffffffffffffffffffffffffffffff1916827bffffffffffffffffffffffffffffffffffffffffffffffffffffffff1916148061164157507f5b5e139f000000000000000000000000000000000000000000000000000000007bffffffffffffffffffffffffffffffffffffffffffffffffffffffff1916827bffffffffffffffffffffffffffffffffffffffffffffffffffffffff1916145b806116515750611650826123a0565b5b9050919050565b60007f7965db0b000000000000000000000000000000000000000000000000000000007bffffffffffffffffffffffffffffffffffffffffffffffffffffffff1916827bffffffffffffffffffffffffffffffffffffffffffffffffffffffff191614806116cb57506116ca82611576565b5b9050919050565b6000806116de8361240a565b9050600073ffffffffffffffffffffffffffffffffffffffff168173ffffffffffffffffffffffffffffffffffffffff160361175157826040517f7e2732890000000000000000000000000000000000000000000000000000000081526004016117489190613165565b60405180910390fd5b80915050919050565b60006004600083815260200190815260200160002060009054906101000a900473ffffffffffffffffffffffffffffffffffffffff169050919050565b600033905090565b6117ac8383836001612447565b505050565b60006117be84848461260c565b90509392505050565b6117d8816117d3611797565b61262a565b50565b60006117e78383610cb8565b6118c25760016007600085815260200190815260200160002060000160008473ffffffffffffffffffffffffffffffffffffffff1673ffffffffffffffffffffffffffffffffffffffff16815260200190815260200160002060006101000a81548160ff02191690831515021790555061185f611797565b73ffffffffffffffffffffffffffffffffffffffff168273ffffffffffffffffffffffffffffffffffffffff16847f2f8788117e7eff1d82e926ec794901d17c78024a50270940304540a733656f0d60405160405180910390a4600190506118c7565b600090505b92915050565b60006118d98383610cb8565b156119b55760006007600085815260200190815260200160002060000160008473ffffffffffffffffffffffffffffffffffffffff1673ffffffffffffffffffffffffffffffffffffffff16815260200190815260200160002060006101000a81548160ff021916908315150217905550611952611797565b73ffffffffffffffffffffffffffffffffffffffff168273ffffffffffffffffffffffffffffffffffffffff16847ff6391f5c32d9c69d2a47ea670b442974b53935d1edc7fd64eb21e047a839171b60405160405180910390a4600190506119ba565b600090505b92915050565b6119c861267b565b6000600660006101000a81548160ff0219169083151502179055507f5db9ee0a495bf2e6ff9c91a7834c1ba4fdd244a5e8aa4e537bd38aeae4b073aa611a0c611797565b604051611a199190612f82565b60405180910390a1565b611a2b611797565b73ffffffffffffffffffffffffffffffffffffffff16611a49610c8e565b73ffffffffffffffffffffffffffffffffffffffff1614611aa857611a6c611797565b6040517f118cdaa7000000000000000000000000000000000000000000000000000000008152600401611a9f9190612f82565b60405180910390fd5b565b6000600860009054906101000a900473ffffffffffffffffffffffffffffffffffffffff16905081600860006101000a81548173ffffffffffffffffffffffffffffffffffffffff021916908373ffffffffffffffffffffffffffffffffffffffff1602179055508173ffffffffffffffffffffffffffffffffffffffff168173ffffffffffffffffffffffffffffffffffffffff167f8be0079c531659141344cd1fd0a4f28419497f9722a3daafe3b4186f6b6457e060405160405180910390a35050565b611b786126bb565b6001600660006101000a81548160ff0219169083151502179055507f62e78cea01bee320cd4e420270b5ea74000d11b0c9f74754ebdbfc544b05a258611bbc611797565b604051611bc99190612f82565b60405180910390a1565b600073ffffffffffffffffffffffffffffffffffffffff168273ffffffffffffffffffffffffffffffffffffffff1603611c4457816040517f5b08ba18000000000000000000000000000000000000000000000000000000008152600401611c3b9190612f82565b60405180910390fd5b80600560008573ffffffffffffffffffffffffffffffffffffffff1673ffffffffffffffffffffffffffffffffffffffff16815260200190815260200160002060008473ffffffffffffffffffffffffffffffffffffffff1673ffffffffffffffffffffffffffffffffffffffff16815260200190815260200160002060006101000a81548160ff0219169083151502179055508173ffffffffffffffffffffffffffffffffffffffff168373ffffffffffffffffffffffffffffffffffffffff167f17307eab39ab6107e8899845ad3d59bd9653f200f220920489ca2b5937696c3183604051611d359190612e11565b60405180910390a3505050565b600073ffffffffffffffffffffffffffffffffffffffff168273ffffffffffffffffffffffffffffffffffffffff1603611db45760006040517f64a0ae92000000000000000000000000000000000000000000000000000000008152600401611dab9190612f82565b60405180910390fd5b6000611dc2838360006117b1565b9050600073ffffffffffffffffffffffffffffffffffffffff168173ffffffffffffffffffffffffffffffffffffffff1614611e365760006040517f73c6ac6e000000000000000000000000000000000000000000000000000000008152600401611e2d9190612f82565b60405180910390fd5b505050565b7f9f2df0fed2c77648de5860a4cc508cd0818c85b8b8a1ab4ceeef8d981c8956a6611e65816117c7565b6000600d60008581526020019081526020016000206040518060600160405290816000820160009054906101000a900473ffffffffffffffffffffffffffffffffffffffff1673ffffffffffffffffffffffffffffffffffffffff1673ffffffffffffffffffffffffffffffffffffffff168152602001600182015481526020016002820154815250509050600081600001519050600073ffffffffffffffffffffffffffffffffffffffff168173ffffffffffffffffffffffffffffffffffffffff1614158015611f805750600f60008273ffffffffffffffffffffffffffffffffffffffff1673ffffffffffffffffffffffffffffffffffffffff16815260200190815260200160002060009054906101000a900460ff165b15611f9057611f8f81856126fc565b5b611f9985611fa1565b505050505050565b611fa9612d23565b6000600d60008481526020019081526020016000206002015490508080611fcf906136f8565b91505060405180606001604052803373ffffffffffffffffffffffffffffffffffffffff16815260200184815260200182815250600d600085815260200190815260200160002060008201518160000160006101000a81548173ffffffffffffffffffffffffffffffffffffffff021916908373ffffffffffffffffffffffffffffffffffffffff1602179055506020820151816001015560408201518160020155905050600d60008481526020019081526020016000206040518060600160405290816000820160009054906101000a900473ffffffffffffffffffffffffffffffffffffffff1673ffffffffffffffffffffffffffffffffffffffff1673ffffffffffffffffffffffffffffffffffffffff16815260200160018201548152602001600282015481525050915050919050565b60008373ffffffffffffffffffffffffffffffffffffffff163b11156122b5578273ffffffffffffffffffffffffffffffffffffffff1663150b7a02612148611797565b8685856040518563ffffffff1660e01b815260040161216a949392919061385d565b6020604051808303816000875af19250505080156121a657506040513d601f19601f820116820180604052508101906121a391906138be565b60015b61222a573d80600081146121d6576040519150601f19603f3d011682016040523d82523d6000602084013e6121db565b606091505b50600081510361222257836040517f64a0ae920000000000000000000000000000000000000000000000000000000081526004016122199190612f82565b60405180910390fd5b805181602001fd5b63150b7a0260e01b7bffffffffffffffffffffffffffffffffffffffffffffffffffffffff1916817bffffffffffffffffffffffffffffffffffffffffffffffffffffffff1916146122b357836040517f64a0ae920000000000000000000000000000000000000000000000000000000081526004016122aa9190612f82565b60405180910390fd5b505b50505050565b606060405180602001604052806000815250905090565b6060600060016122e184612831565b01905060008167ffffffffffffffff811115612300576122ff61326d565b5b6040519080825280601f01601f1916602001820160405280156123325781602001600182028036833780820191505090505b509050600082602001820190505b600115612395578080600190039150507f3031323334353637383961626364656600000000000000000000000000000000600a86061a8153600a858161238957612388613664565b5b04945060008503612340575b819350505050919050565b60007f01ffc9a7000000000000000000000000000000000000000000000000000000007bffffffffffffffffffffffffffffffffffffffffffffffffffffffff1916827bffffffffffffffffffffffffffffffffffffffffffffffffffffffff1916149050919050565b60006002600083815260200190815260200160002060009054906101000a900473ffffffffffffffffffffffffffffffffffffffff169050919050565b80806124805750600073ffffffffffffffffffffffffffffffffffffffff168273ffffffffffffffffffffffffffffffffffffffff1614155b156125b4576000612490846116d2565b9050600073ffffffffffffffffffffffffffffffffffffffff168373ffffffffffffffffffffffffffffffffffffffff16141580156124fb57508273ffffffffffffffffffffffffffffffffffffffff168173ffffffffffffffffffffffffffffffffffffffff1614155b801561250e575061250c818461142f565b155b1561255057826040517fa9fbf51f0000000000000000000000000000000000000000000000000000000081526004016125479190612f82565b60405180910390fd5b81156125b257838573ffffffffffffffffffffffffffffffffffffffff168273ffffffffffffffffffffffffffffffffffffffff167f8c5be1e5ebec7d5bd14f71427d1e84f3dd0314c0f7b2291e5b200ac8c7c3b92560405160405180910390a45b505b836004600085815260200190815260200160002060006101000a81548173ffffffffffffffffffffffffffffffffffffffff021916908373ffffffffffffffffffffffffffffffffffffffff16021790555050505050565b60006126166126bb565b612621848484612984565b90509392505050565b6126348282610cb8565b6126775780826040517fe2517d3f00000000000000000000000000000000000000000000000000000000815260040161266e9291906138eb565b60405180910390fd5b5050565b612683610b18565b6126b9576040517f8dfc202b00000000000000000000000000000000000000000000000000000000815260040160405180910390fd5b565b6126c3610b18565b156126fa576040517fd93c066500000000000000000000000000000000000000000000000000000000815260040160405180910390fd5b565b600060096000815480929190612711906136f8565b9190505590506127218382611d42565b60405180604001604052808381526020018473ffffffffffffffffffffffffffffffffffffffff16815250601060008381526020019081526020016000206000820151816000015560208201518160010160006101000a81548173ffffffffffffffffffffffffffffffffffffffff021916908373ffffffffffffffffffffffffffffffffffffffff160217905550905050808373ffffffffffffffffffffffffffffffffffffffff167fab35af5ec939ea309187cb7506183762e40f7c26f13d5149c14875a2aea5709a60405180604001604052808681526020018773ffffffffffffffffffffffffffffffffffffffff16815250604051612824919061378d565b60405180910390a3505050565b600080600090507a184f03e93ff9f4daa797ed6e38ed64bf6a1f010000000000000000831061288f577a184f03e93ff9f4daa797ed6e38ed64bf6a1f010000000000000000838161288557612884613664565b5b0492506040810190505b6d04ee2d6d415b85acef810000000083106128cc576d04ee2d6d415b85acef810000000083816128c2576128c1613664565b5b0492506020810190505b662386f26fc1000083106128fb57662386f26fc1000083816128f1576128f0613664565b5b0492506010810190505b6305f5e1008310612924576305f5e100838161291a57612919613664565b5b0492506008810190505b612710831061294957612710838161293f5761293e613664565b5b0492506004810190505b6064831061296c576064838161296257612961613664565b5b0492506002810190505b600a831061297b576001810190505b80915050919050565b6000806129908461240a565b9050600073ffffffffffffffffffffffffffffffffffffffff168373ffffffffffffffffffffffffffffffffffffffff16146129d2576129d1818486612b9e565b5b600073ffffffffffffffffffffffffffffffffffffffff168173ffffffffffffffffffffffffffffffffffffffff1614612a6357612a14600085600080612447565b6001600360008373ffffffffffffffffffffffffffffffffffffffff1673ffffffffffffffffffffffffffffffffffffffff168152602001908152602001600020600082825403925050819055505b600073ffffffffffffffffffffffffffffffffffffffff168573ffffffffffffffffffffffffffffffffffffffff1614612ae6576001600360008773ffffffffffffffffffffffffffffffffffffffff1673ffffffffffffffffffffffffffffffffffffffff168152602001908152602001600020600082825401925050819055505b846002600086815260200190815260200160002060006101000a81548173ffffffffffffffffffffffffffffffffffffffff021916908373ffffffffffffffffffffffffffffffffffffffff160217905550838573ffffffffffffffffffffffffffffffffffffffff168273ffffffffffffffffffffffffffffffffffffffff167fddf252ad1be2c89b69c2b068fc378daa952ba7f163c4a11628f55a4df523b3ef60405160405180910390a4809150509392505050565b612ba9838383612c62565b612c5d57600073ffffffffffffffffffffffffffffffffffffffff168373ffffffffffffffffffffffffffffffffffffffff1603612c1e57806040517f7e273289000000000000000000000000000000000000000000000000000000008152600401612c159190613165565b60405180910390fd5b81816040517f177e802f000000000000000000000000000000000000000000000000000000008152600401612c54929190613914565b60405180910390fd5b505050565b60008073ffffffffffffffffffffffffffffffffffffffff168373ffffffffffffffffffffffffffffffffffffffff1614158015612d1a57508273ffffffffffffffffffffffffffffffffffffffff168473ffffffffffffffffffffffffffffffffffffffff161480612cdb5750612cda848461142f565b5b80612d1957508273ffffffffffffffffffffffffffffffffffffffff16612d018361175a565b73ffffffffffffffffffffffffffffffffffffffff16145b5b90509392505050565b6040518060600160405280600073ffffffffffffffffffffffffffffffffffffffff16815260200160008019168152602001600081525090565b6000604051905090565b600080fd5b600080fd5b60007fffffffff0000000000000000000000000000000000000000000000000000000082169050919050565b612da681612d71565b8114612db157600080fd5b50565b600081359050612dc381612d9d565b92915050565b600060208284031215612ddf57612dde612d67565b5b6000612ded84828501612db4565b91505092915050565b60008115159050919050565b612e0b81612df6565b82525050565b6000602082019050612e266000830184612e02565b92915050565b600081519050919050565b600082825260208201905092915050565b60005b83811015612e66578082015181840152602081019050612e4b565b60008484015250505050565b6000601f19601f8301169050919050565b6000612e8e82612e2c565b612e988185612e37565b9350612ea8818560208601612e48565b612eb181612e72565b840191505092915050565b60006020820190508181036000830152612ed68184612e83565b905092915050565b6000819050919050565b612ef181612ede565b8114612efc57600080fd5b50565b600081359050612f0e81612ee8565b92915050565b600060208284031215612f2a57612f29612d67565b5b6000612f3884828501612eff565b91505092915050565b600073ffffffffffffffffffffffffffffffffffffffff82169050919050565b6000612f6c82612f41565b9050919050565b612f7c81612f61565b82525050565b6000602082019050612f976000830184612f73565b92915050565b612fa681612f61565b8114612fb157600080fd5b50565b600081359050612fc381612f9d565b92915050565b60008060408385031215612fe057612fdf612d67565b5b6000612fee85828601612fb4565b9250506020612fff85828601612eff565b9150509250929050565b60008060006060848603121561302257613021612d67565b5b600061303086828701612fb4565b935050602061304186828701612fb4565b925050604061305286828701612eff565b9150509250925092565b6000819050919050565b61306f8161305c565b811461307a57600080fd5b50565b60008135905061308c81613066565b92915050565b6000602082840312156130a8576130a7612d67565b5b60006130b68482850161307d565b91505092915050565b6130c88161305c565b82525050565b60006020820190506130e360008301846130bf565b92915050565b60008060408385031215613100576130ff612d67565b5b600061310e8582860161307d565b925050602061311f85828601612fb4565b9150509250929050565b60006020828403121561313f5761313e612d67565b5b600061314d84828501612fb4565b91505092915050565b61315f81612ede565b82525050565b600060208201905061317a6000830184613156565b92915050565b60006060820190506131956000830186612f73565b6131a260208301856130bf565b6131af6040830184613156565b949350505050565b6131c081612df6565b81146131cb57600080fd5b50565b6000813590506131dd816131b7565b92915050565b600080604083850312156131fa576131f9612d67565b5b600061320885828601612fb4565b9250506020613219858286016131ce565b9150509250929050565b6000806040838503121561323a57613239612d67565b5b60006132488582860161307d565b92505060206132598582860161307d565b9150509250929050565b600080fd5b600080fd5b7f4e487b7100000000000000000000000000000000000000000000000000000000600052604160045260246000fd5b6132a582612e72565b810181811067ffffffffffffffff821117156132c4576132c361326d565b5b80604052505050565b60006132d7612d5d565b90506132e3828261329c565b919050565b600067ffffffffffffffff8211156133035761330261326d565b5b61330c82612e72565b9050602081019050919050565b82818337600083830152505050565b600061333b613336846132e8565b6132cd565b90508281526020810184848401111561335757613356613268565b5b613362848285613319565b509392505050565b600082601f83011261337f5761337e613263565b5b813561338f848260208601613328565b91505092915050565b600080600080608085870312156133b2576133b1612d67565b5b60006133c087828801612fb4565b94505060206133d187828801612fb4565b93505060406133e287828801612eff565b925050606085013567ffffffffffffffff81111561340357613402612d6c565b5b61340f8782880161336a565b91505092959194509250565b600060408201905061343060008301856130bf565b61343d6020830184612f73565b9392505050565b6000806040838503121561345b5761345a612d67565b5b600061346985828601612fb4565b925050602061347a85828601612fb4565b9150509250929050565b7f4e487b7100000000000000000000000000000000000000000000000000000000600052602260045260246000fd5b600060028204905060018216806134cb57607f821691505b6020821081036134de576134dd613484565b5b50919050565b60006060820190506134f96000830186612f73565b6135066020830185613156565b6135136040830184612f73565b949350505050565b7f5573657220616c72656164792073657420626972746864617900000000000000600082015250565b6000613551601983612e37565b915061355c8261351b565b602082019050919050565b6000602082019050818103600083015261358081613544565b9050919050565b7f496e73756666696369656e74204554482073656e740000000000000000000000600082015250565b60006135bd601583612e37565b91506135c882613587565b602082019050919050565b600060208201905081810360008301526135ec816135b0565b9050919050565b7f4e487b7100000000000000000000000000000000000000000000000000000000600052601160045260246000fd5b600061362d82612ede565b915061363883612ede565b925082820261364681612ede565b9150828204841483151761365d5761365c6135f3565b5b5092915050565b7f4e487b7100000000000000000000000000000000000000000000000000000000600052601260045260246000fd5b600061369e82612ede565b91506136a983612ede565b9250826136b9576136b8613664565b5b828204905092915050565b60006136cf82612ede565b91506136da83612ede565b92508282039050818111156136f2576136f16135f3565b5b92915050565b600061370382612ede565b91507fffffffffffffffffffffffffffffffffffffffffffffffffffffffffffffffff8203613735576137346135f3565b5b600182019050919050565b6137498161305c565b82525050565b61375881612f61565b82525050565b6040820160008201516137746000850182613740565b506020820151613787602085018261374f565b50505050565b60006040820190506137a2600083018461375e565b92915050565b600081905092915050565b60006137be82612e2c565b6137c881856137a8565b93506137d8818560208601612e48565b80840191505092915050565b60006137f082856137b3565b91506137fc82846137b3565b91508190509392505050565b600081519050919050565b600082825260208201905092915050565b600061382f82613808565b6138398185613813565b9350613849818560208601612e48565b61385281612e72565b840191505092915050565b60006080820190506138726000830187612f73565b61387f6020830186612f73565b61388c6040830185613156565b818103606083015261389e8184613824565b905095945050505050565b6000815190506138b881612d9d565b92915050565b6000602082840312156138d4576138d3612d67565b5b60006138e2848285016138a9565b91505092915050565b60006040820190506139006000830185612f73565b61390d60208301846130bf565b9392505050565b60006040820190506139296000830185612f73565b6139366020830184613156565b939250505056fea26469706673582212203c6eb8d07936723d74dc330449c85082367d5f6e06e5e848e910ab2c2d8dc82164736f6c634300081a0033",
  "linkReferences": {},
  "deployedLinkReferences": {}
}