{
  "_format": "hh-sol-artifact-1",
  "contractName": "ThetaCollectibles",
  "sourceName": "contracts/ThetaCollectibles.sol",
  "abi": [
    {
      "inputs": [
        {
          "internalType": "address",
          "name": "_reflectionPoolAddress",
          "type": "address"
        },
        {
          "internalType": "address",
          "name": "_birthdayBabyPoolAddress",
          "type": "address"
        },
        {
          "internalType": "address",
          "name": "_houseFeeAddress",
          "type": "address"
        }
      ],
      "stateMutability": "nonpayable",
      "type": "constructor"
    },
    {
      "inputs": [],
      "name": "AccessControlBadConfirmation",
      "type": "error"
    },
    {
      "inputs": [
        {
          "internalType": "address",
          "name": "account",
          "type": "address"
        },
        {
          "internalType": "bytes32",
          "name": "neededRole",
          "type": "bytes32"
        }
      ],
      "name": "AccessControlUnauthorizedAccount",
      "type": "error"
    },
    {
      "inputs": [
        {
          "internalType": "address",
          "name": "sender",
          "type": "address"
        },
        {
          "internalType": "uint256",
          "name": "tokenId",
          "type": "uint256"
        },
        {
          "internalType": "address",
          "name": "owner",
          "type": "address"
        }
      ],
      "name": "ERC721IncorrectOwner",
      "type": "error"
    },
    {
      "inputs": [
        {
          "internalType": "address",
          "name": "operator",
          "type": "address"
        },
        {
          "internalType": "uint256",
          "name": "tokenId",
          "type": "uint256"
        }
      ],
      "name": "ERC721InsufficientApproval",
      "type": "error"
    },
    {
      "inputs": [
        {
          "internalType": "address",
          "name": "approver",
          "type": "address"
        }
      ],
      "name": "ERC721InvalidApprover",
      "type": "error"
    },
    {
      "inputs": [
        {
          "internalType": "address",
          "name": "operator",
          "type": "address"
        }
      ],
      "name": "ERC721InvalidOperator",
      "type": "error"
    },
    {
      "inputs": [
        {
          "internalType": "address",
          "name": "owner",
          "type": "address"
        }
      ],
      "name": "ERC721InvalidOwner",
      "type": "error"
    },
    {
      "inputs": [
        {
          "internalType": "address",
          "name": "receiver",
          "type": "address"
        }
      ],
      "name": "ERC721InvalidReceiver",
      "type": "error"
    },
    {
      "inputs": [
        {
          "internalType": "address",
          "name": "sender",
          "type": "address"
        }
      ],
      "name": "ERC721InvalidSender",
      "type": "error"
    },
    {
      "inputs": [
        {
          "internalType": "uint256",
          "name": "tokenId",
          "type": "uint256"
        }
      ],
      "name": "ERC721NonexistentToken",
      "type": "error"
    },
    {
      "inputs": [],
      "name": "EnforcedPause",
      "type": "error"
    },
    {
      "inputs": [],
      "name": "ExpectedPause",
      "type": "error"
    },
    {
      "inputs": [
        {
          "internalType": "address",
          "name": "owner",
          "type": "address"
        }
      ],
      "name": "OwnableInvalidOwner",
      "type": "error"
    },
    {
      "inputs": [
        {
          "internalType": "address",
          "name": "account",
          "type": "address"
        }
      ],
      "name": "OwnableUnauthorizedAccount",
      "type": "error"
    },
    {
      "anonymous": false,
      "inputs": [
        {
          "indexed": true,
          "internalType": "address",
          "name": "owner",
          "type": "address"
        },
        {
          "indexed": true,
          "internalType": "address",
          "name": "approved",
          "type": "address"
        },
        {
          "indexed": true,
          "internalType": "uint256",
          "name": "tokenId",
          "type": "uint256"
        }
      ],
      "name": "Approval",
      "type": "event"
    },
    {
      "anonymous": false,
      "inputs": [
        {
          "indexed": true,
          "internalType": "address",
          "name": "owner",
          "type": "address"
        },
        {
          "indexed": true,
          "internalType": "address",
          "name": "operator",
          "type": "address"
        },
        {
          "indexed": false,
          "internalType": "bool",
          "name": "approved",
          "type": "bool"
        }
      ],
      "name": "ApprovalForAll",
      "type": "event"
    },
    {
      "anonymous": false,
      "inputs": [
        {
          "indexed": true,
          "internalType": "address",
          "name": "previousOwner",
          "type": "address"
        },
        {
          "indexed": true,
          "internalType": "address",
          "name": "newOwner",
          "type": "address"
        }
      ],
      "name": "OwnershipTransferred",
      "type": "event"
    },
    {
      "anonymous": false,
      "inputs": [
        {
          "indexed": false,
          "internalType": "address",
          "name": "account",
          "type": "address"
        }
      ],
      "name": "Paused",
      "type": "event"
    },
    {
      "anonymous": false,
      "inputs": [
        {
          "indexed": true,
          "internalType": "bytes32",
          "name": "role",
          "type": "bytes32"
        },
        {
          "indexed": true,
          "internalType": "bytes32",
          "name": "previousAdminRole",
          "type": "bytes32"
        },
        {
          "indexed": true,
          "internalType": "bytes32",
          "name": "newAdminRole",
          "type": "bytes32"
        }
      ],
      "name": "RoleAdminChanged",
      "type": "event"
    },
    {
      "anonymous": false,
      "inputs": [
        {
          "indexed": true,
          "internalType": "bytes32",
          "name": "role",
          "type": "bytes32"
        },
        {
          "indexed": true,
          "internalType": "address",
          "name": "account",
          "type": "address"
        },
        {
          "indexed": true,
          "internalType": "address",
          "name": "sender",
          "type": "address"
        }
      ],
      "name": "RoleGranted",
      "type": "event"
    },
    {
      "anonymous": false,
      "inputs": [
        {
          "indexed": true,
          "internalType": "bytes32",
          "name": "role",
          "type": "bytes32"
        },
        {
          "indexed": true,
          "internalType": "address",
          "name": "account",
          "type": "address"
        },
        {
          "indexed": true,
          "internalType": "address",
          "name": "sender",
          "type": "address"
        }
      ],
      "name": "RoleRevoked",
      "type": "event"
    },
    {
      "anonymous": false,
      "inputs": [
        {
          "indexed": true,
          "internalType": "address",
          "name": "owner",
          "type": "address"
        },
        {
          "indexed": true,
          "internalType": "uint256",
          "name": "tokenId",
          "type": "uint256"
        },
        {
          "components": [
            {
              "internalType": "bytes32",
              "name": "url",
              "type": "bytes32"
            },
            {
              "internalType": "address",
              "name": "owner",
              "type": "address"
            }
          ],
          "indexed": false,
          "internalType": "struct ThetaCollectibles.AstroData",
          "name": "",
          "type": "tuple"
        }
      ],
      "name": "ThetaMinted",
      "type": "event"
    },
    {
      "anonymous": false,
      "inputs": [
        {
          "indexed": true,
          "internalType": "address",
          "name": "from",
          "type": "address"
        },
        {
          "indexed": true,
          "internalType": "address",
          "name": "to",
          "type": "address"
        },
        {
          "indexed": true,
          "internalType": "uint256",
          "name": "tokenId",
          "type": "uint256"
        }
      ],
      "name": "Transfer",
      "type": "event"
    },
    {
      "anonymous": false,
      "inputs": [
        {
          "indexed": false,
          "internalType": "address",
          "name": "account",
          "type": "address"
        }
      ],
      "name": "Unpaused",
      "type": "event"
    },
    {
      "inputs": [],
      "name": "BIRTHDAY_BABY_POOL_PERCENTAGE",
      "outputs": [
        {
          "internalType": "uint8",
          "name": "",
          "type": "uint8"
        }
      ],
      "stateMutability": "view",
      "type": "function"
    },
    {
      "inputs": [],
      "name": "DEFAULT_ADMIN_ROLE",
      "outputs": [
        {
          "internalType": "bytes32",
          "name": "",
          "type": "bytes32"
        }
      ],
      "stateMutability": "view",
      "type": "function"
    },
    {
      "inputs": [],
      "name": "HOUSE_FEE_PERCENTAGE",
      "outputs": [
        {
          "internalType": "uint8",
          "name": "",
          "type": "uint8"
        }
      ],
      "stateMutability": "view",
      "type": "function"
    },
    {
      "inputs": [],
      "name": "MINTER_ROLE",
      "outputs": [
        {
          "internalType": "bytes32",
          "name": "",
          "type": "bytes32"
        }
      ],
      "stateMutability": "view",
      "type": "function"
    },
    {
      "inputs": [],
      "name": "MINT_PRICE",
      "outputs": [
        {
          "internalType": "uint256",
          "name": "",
          "type": "uint256"
        }
      ],
      "stateMutability": "view",
      "type": "function"
    },
    {
      "inputs": [],
      "name": "MINT_TAX_PERCENTAGE",
      "outputs": [
        {
          "internalType": "uint8",
          "name": "",
          "type": "uint8"
        }
      ],
      "stateMutability": "view",
      "type": "function"
    },
    {
      "inputs": [],
      "name": "PAUSER_ROLE",
      "outputs": [
        {
          "internalType": "bytes32",
          "name": "",
          "type": "bytes32"
        }
      ],
      "stateMutability": "view",
      "type": "function"
    },
    {
      "inputs": [],
      "name": "REFLECTION_POOL_PERCENTAGE",
      "outputs": [
        {
          "internalType": "uint8",
          "name": "",
          "type": "uint8"
        }
      ],
      "stateMutability": "view",
      "type": "function"
    },
    {
      "inputs": [
        {
          "internalType": "address",
          "name": "to",
          "type": "address"
        },
        {
          "internalType": "uint256",
          "name": "tokenId",
          "type": "uint256"
        }
      ],
      "name": "approve",
      "outputs": [],
      "stateMutability": "nonpayable",
      "type": "function"
    },
    {
      "inputs": [
        {
          "internalType": "uint256",
          "name": "",
          "type": "uint256"
        }
      ],
      "name": "astroData",
      "outputs": [
        {
          "internalType": "bytes32",
          "name": "url",
          "type": "bytes32"
        },
        {
          "internalType": "address",
          "name": "owner",
          "type": "address"
        }
      ],
      "stateMutability": "view",
      "type": "function"
    },
    {
      "inputs": [
        {
          "internalType": "address",
          "name": "owner",
          "type": "address"
        }
      ],
      "name": "balanceOf",
      "outputs": [
        {
          "internalType": "uint256",
          "name": "",
          "type": "uint256"
        }
      ],
      "stateMutability": "view",
      "type": "function"
    },
    {
      "inputs": [
        {
          "internalType": "bytes32",
          "name": "",
          "type": "bytes32"
        }
      ],
      "name": "birthDateStruct",
      "outputs": [
        {
          "internalType": "address",
          "name": "TestUser",
          "type": "address"
        },
        {
          "internalType": "bytes32",
          "name": "birthdate",
          "type": "bytes32"
        },
        {
          "internalType": "uint256",
          "name": "counter",
          "type": "uint256"
        }
      ],
      "stateMutability": "view",
      "type": "function"
    },
    {
      "inputs": [],
      "name": "birthdayBabyPoolAddress",
      "outputs": [
        {
          "internalType": "address",
          "name": "",
          "type": "address"
        }
      ],
      "stateMutability": "view",
      "type": "function"
    },
    {
      "inputs": [
        {
          "internalType": "bytes32",
          "name": "birthdate",
          "type": "bytes32"
        }
      ],
      "name": "dropNFTAndSetLastUserOfBirthdate",
      "outputs": [],
      "stateMutability": "nonpayable",
      "type": "function"
    },
    {
      "inputs": [
        {
          "internalType": "uint256",
          "name": "tokenId",
          "type": "uint256"
        }
      ],
      "name": "getApproved",
      "outputs": [
        {
          "internalType": "address",
          "name": "",
          "type": "address"
        }
      ],
      "stateMutability": "view",
      "type": "function"
    },
    {
      "inputs": [],
      "name": "getMinterRole",
      "outputs": [],
      "stateMutability": "nonpayable",
      "type": "function"
    },
    {
      "inputs": [
        {
          "internalType": "bytes32",
          "name": "role",
          "type": "bytes32"
        }
      ],
      "name": "getRoleAdmin",
      "outputs": [
        {
          "internalType": "bytes32",
          "name": "",
          "type": "bytes32"
        }
      ],
      "stateMutability": "view",
      "type": "function"
    },
    {
      "inputs": [
        {
          "internalType": "bytes32",
          "name": "role",
          "type": "bytes32"
        },
        {
          "internalType": "address",
          "name": "account",
          "type": "address"
        }
      ],
      "name": "grantRole",
      "outputs": [],
      "stateMutability": "nonpayable",
      "type": "function"
    },
    {
      "inputs": [
        {
          "internalType": "bytes32",
          "name": "role",
          "type": "bytes32"
        },
        {
          "internalType": "address",
          "name": "account",
          "type": "address"
        }
      ],
      "name": "hasRole",
      "outputs": [
        {
          "internalType": "bool",
          "name": "",
          "type": "bool"
        }
      ],
      "stateMutability": "view",
      "type": "function"
    },
    {
      "inputs": [],
      "name": "houseFeeAddress",
      "outputs": [
        {
          "internalType": "address",
          "name": "",
          "type": "address"
        }
      ],
      "stateMutability": "view",
      "type": "function"
    },
    {
      "inputs": [
        {
          "internalType": "address",
          "name": "owner",
          "type": "address"
        },
        {
          "internalType": "address",
          "name": "operator",
          "type": "address"
        }
      ],
      "name": "isApprovedForAll",
      "outputs": [
        {
          "internalType": "bool",
          "name": "",
          "type": "bool"
        }
      ],
      "stateMutability": "view",
      "type": "function"
    },
    {
      "inputs": [
        {
          "internalType": "bytes32",
          "name": "url",
          "type": "bytes32"
        }
      ],
      "name": "mintTheta",
      "outputs": [],
      "stateMutability": "payable",
      "type": "function"
    },
    {
      "inputs": [],
      "name": "name",
      "outputs": [
        {
          "internalType": "string",
          "name": "",
          "type": "string"
        }
      ],
      "stateMutability": "view",
      "type": "function"
    },
    {
      "inputs": [],
      "name": "owner",
      "outputs": [
        {
          "internalType": "address",
          "name": "",
          "type": "address"
        }
      ],
      "stateMutability": "view",
      "type": "function"
    },
    {
      "inputs": [
        {
          "internalType": "uint256",
          "name": "tokenId",
          "type": "uint256"
        }
      ],
      "name": "ownerOf",
      "outputs": [
        {
          "internalType": "address",
          "name": "",
          "type": "address"
        }
      ],
      "stateMutability": "view",
      "type": "function"
    },
    {
      "inputs": [],
      "name": "pause",
      "outputs": [],
      "stateMutability": "nonpayable",
      "type": "function"
    },
    {
      "inputs": [],
      "name": "paused",
      "outputs": [
        {
          "internalType": "bool",
          "name": "",
          "type": "bool"
        }
      ],
      "stateMutability": "view",
      "type": "function"
    },
    {
      "inputs": [],
      "name": "reflectionPoolAddress",
      "outputs": [
        {
          "internalType": "address",
          "name": "",
          "type": "address"
        }
      ],
      "stateMutability": "view",
      "type": "function"
    },
    {
      "inputs": [],
      "name": "renounceOwnership",
      "outputs": [],
      "stateMutability": "nonpayable",
      "type": "function"
    },
    {
      "inputs": [
        {
          "internalType": "bytes32",
          "name": "role",
          "type": "bytes32"
        },
        {
          "internalType": "address",
          "name": "callerConfirmation",
          "type": "address"
        }
      ],
      "name": "renounceRole",
      "outputs": [],
      "stateMutability": "nonpayable",
      "type": "function"
    },
    {
      "inputs": [
        {
          "internalType": "bytes32",
          "name": "role",
          "type": "bytes32"
        },
        {
          "internalType": "address",
          "name": "account",
          "type": "address"
        }
      ],
      "name": "revokeRole",
      "outputs": [],
      "stateMutability": "nonpayable",
      "type": "function"
    },
    {
      "inputs": [
        {
          "internalType": "address",
          "name": "from",
          "type": "address"
        },
        {
          "internalType": "address",
          "name": "to",
          "type": "address"
        },
        {
          "internalType": "uint256",
          "name": "tokenId",
          "type": "uint256"
        }
      ],
      "name": "safeTransferFrom",
      "outputs": [],
      "stateMutability": "nonpayable",
      "type": "function"
    },
    {
      "inputs": [
        {
          "internalType": "address",
          "name": "from",
          "type": "address"
        },
        {
          "internalType": "address",
          "name": "to",
          "type": "address"
        },
        {
          "internalType": "uint256",
          "name": "tokenId",
          "type": "uint256"
        },
        {
          "internalType": "bytes",
          "name": "data",
          "type": "bytes"
        }
      ],
      "name": "safeTransferFrom",
      "outputs": [],
      "stateMutability": "nonpayable",
      "type": "function"
    },
    {
      "inputs": [
        {
          "internalType": "address",
          "name": "operator",
          "type": "address"
        },
        {
          "internalType": "bool",
          "name": "approved",
          "type": "bool"
        }
      ],
      "name": "setApprovalForAll",
      "outputs": [],
      "stateMutability": "nonpayable",
      "type": "function"
    },
    {
      "inputs": [
        {
          "internalType": "bytes4",
          "name": "interfaceId",
          "type": "bytes4"
        }
      ],
      "name": "supportsInterface",
      "outputs": [
        {
          "internalType": "bool",
          "name": "",
          "type": "bool"
        }
      ],
      "stateMutability": "view",
      "type": "function"
    },
    {
      "inputs": [],
      "name": "symbol",
      "outputs": [
        {
          "internalType": "string",
          "name": "",
          "type": "string"
        }
      ],
      "stateMutability": "view",
      "type": "function"
    },
    {
      "inputs": [
        {
          "internalType": "uint256",
          "name": "tokenId",
          "type": "uint256"
        }
      ],
      "name": "tokenURI",
      "outputs": [
        {
          "internalType": "string",
          "name": "",
          "type": "string"
        }
      ],
      "stateMutability": "view",
      "type": "function"
    },
    {
      "inputs": [
        {
          "internalType": "address",
          "name": "from",
          "type": "address"
        },
        {
          "internalType": "address",
          "name": "to",
          "type": "address"
        },
        {
          "internalType": "uint256",
          "name": "tokenId",
          "type": "uint256"
        }
      ],
      "name": "transferFrom",
      "outputs": [],
      "stateMutability": "nonpayable",
      "type": "function"
    },
    {
      "inputs": [
        {
          "internalType": "address",
          "name": "newOwner",
          "type": "address"
        }
      ],
      "name": "transferOwnership",
      "outputs": [],
      "stateMutability": "nonpayable",
      "type": "function"
    },
    {
      "inputs": [],
      "name": "unpause",
      "outputs": [],
      "stateMutability": "nonpayable",
      "type": "function"
    },
    {
      "inputs": [
        {
          "internalType": "address",
          "name": "",
          "type": "address"
        }
      ],
      "name": "userBirthdays",
      "outputs": [
        {
          "internalType": "uint256",
          "name": "",
          "type": "uint256"
        }
      ],
      "stateMutability": "view",
      "type": "function"
    }
  ],
  "bytecode": "0x608060405234801561001057600080fd5b5060405161417c38038061417c83398181016040528101906100329190610508565b336040518060400160405280601181526020017f5468657461436f6c6c65637469626c65730000000000000000000000000000008152506040518060400160405280600581526020017f544845544100000000000000000000000000000000000000000000000000000081525081600090816100ae91906107ab565b5080600190816100be91906107ab565b5050506000600660006101000a81548160ff021916908315150217905550600073ffffffffffffffffffffffffffffffffffffffff168173ffffffffffffffffffffffffffffffffffffffff160361014e5760006040517f1e4fbdf7000000000000000000000000000000000000000000000000000000008152600401610145919061088c565b60405180910390fd5b61015d8161026e60201b60201c565b5082600a60006101000a81548173ffffffffffffffffffffffffffffffffffffffff021916908373ffffffffffffffffffffffffffffffffffffffff16021790555081600b60006101000a81548173ffffffffffffffffffffffffffffffffffffffff021916908373ffffffffffffffffffffffffffffffffffffffff16021790555080600c60006101000a81548173ffffffffffffffffffffffffffffffffffffffff021916908373ffffffffffffffffffffffffffffffffffffffff1602179055506102346000801b3361033460201b60201c565b506102657f65d7a28e3265b37a6474929f336521b332c1681b933f6cb9f3376673440d862a3361033460201b60201c565b505050506108a7565b6000600860009054906101000a900473ffffffffffffffffffffffffffffffffffffffff16905081600860006101000a81548173ffffffffffffffffffffffffffffffffffffffff021916908373ffffffffffffffffffffffffffffffffffffffff1602179055508173ffffffffffffffffffffffffffffffffffffffff168173ffffffffffffffffffffffffffffffffffffffff167f8be0079c531659141344cd1fd0a4f28419497f9722a3daafe3b4186f6b6457e060405160405180910390a35050565b6000610346838361043260201b60201c565b6104275760016007600085815260200190815260200160002060000160008473ffffffffffffffffffffffffffffffffffffffff1673ffffffffffffffffffffffffffffffffffffffff16815260200190815260200160002060006101000a81548160ff0219169083151502179055506103c461049d60201b60201c565b73ffffffffffffffffffffffffffffffffffffffff168273ffffffffffffffffffffffffffffffffffffffff16847f2f8788117e7eff1d82e926ec794901d17c78024a50270940304540a733656f0d60405160405180910390a46001905061042c565b600090505b92915050565b60006007600084815260200190815260200160002060000160008373ffffffffffffffffffffffffffffffffffffffff1673ffffffffffffffffffffffffffffffffffffffff16815260200190815260200160002060009054906101000a900460ff16905092915050565b600033905090565b600080fd5b600073ffffffffffffffffffffffffffffffffffffffff82169050919050565b60006104d5826104aa565b9050919050565b6104e5816104ca565b81146104f057600080fd5b50565b600081519050610502816104dc565b92915050565b600080600060608486031215610521576105206104a5565b5b600061052f868287016104f3565b9350506020610540868287016104f3565b9250506040610551868287016104f3565b9150509250925092565b600081519050919050565b7f4e487b7100000000000000000000000000000000000000000000000000000000600052604160045260246000fd5b7f4e487b7100000000000000000000000000000000000000000000000000000000600052602260045260246000fd5b600060028204905060018216806105dc57607f821691505b6020821081036105ef576105ee610595565b5b50919050565b60008190508160005260206000209050919050565b60006020601f8301049050919050565b600082821b905092915050565b6000600883026106577fffffffffffffffffffffffffffffffffffffffffffffffffffffffffffffffff8261061a565b610661868361061a565b95508019841693508086168417925050509392505050565b6000819050919050565b6000819050919050565b60006106a86106a361069e84610679565b610683565b610679565b9050919050565b6000819050919050565b6106c28361068d565b6106d66106ce826106af565b848454610627565b825550505050565b600090565b6106eb6106de565b6106f68184846106b9565b505050565b5b8181101561071a5761070f6000826106e3565b6001810190506106fc565b5050565b601f82111561075f57610730816105f5565b6107398461060a565b81016020851015610748578190505b61075c6107548561060a565b8301826106fb565b50505b505050565b600082821c905092915050565b600061078260001984600802610764565b1980831691505092915050565b600061079b8383610771565b9150826002028217905092915050565b6107b48261055b565b67ffffffffffffffff8111156107cd576107cc610566565b5b6107d782546105c4565b6107e282828561071e565b600060209050601f8311600181146108155760008415610803578287015190505b61080d858261078f565b865550610875565b601f198416610823866105f5565b60005b8281101561084b57848901518255600182019150602085019450602081019050610826565b868310156108685784890151610864601f891682610771565b8355505b6001600288020188555050505b505050505050565b610886816104ca565b82525050565b60006020820190506108a1600083018461087d565b92915050565b6138c6806108b66000396000f3fe6080604052600436106102465760003560e01c80638da5cb5b11610139578063c87b56dd116100b6578063e63ab1e91161007a578063e63ab1e914610873578063e7e80e2a1461089e578063e985e9c5146108dc578063ea35f36c14610919578063eebcd82d14610930578063f2fde38b1461095b57610246565b8063c87b56dd1461079b578063ce733080146107d8578063d539139314610803578063d547741f1461082e578063e034af3f1461085757610246565b8063a217fddf116100fd578063a217fddf146106c8578063a22cb465146106f3578063aa7eb9c91461071c578063b88d4fde14610747578063c002d23d1461077057610246565b80638da5cb5b146105cd57806391d14854146105f857806394991ffd1461063557806395aed9f91461067257806395d89b411461069d57610246565b80635c975abb116101c757806370a082311161018b57806370a08231146104fa578063715018a61461053757806372295ff11461054e578063770d02b81461058d5780638456cb59146105b657610246565b80635c975abb146104115780635dfc54b71461043c5780636352211e14610467578063660eebd6146104a4578063663e1127146104cf57610246565b8063248a9ca31161020e578063248a9ca3146103425780632f2ff15d1461037f57806336568abe146103a85780633f4ba83a146103d157806342842e0e146103e857610246565b806301ffc9a71461024b57806306fdde0314610288578063081812fc146102b3578063095ea7b3146102f057806323b872dd14610319575b600080fd5b34801561025757600080fd5b50610272600480360381019061026d9190612dc5565b610984565b60405161027f9190612e0d565b60405180910390f35b34801561029457600080fd5b5061029d6109a6565b6040516102aa9190612eb8565b60405180910390f35b3480156102bf57600080fd5b506102da60048036038101906102d59190612f10565b610a38565b6040516102e79190612f7e565b60405180910390f35b3480156102fc57600080fd5b5061031760048036038101906103129190612fc5565b610a54565b005b34801561032557600080fd5b50610340600480360381019061033b9190613005565b610a6a565b005b34801561034e57600080fd5b506103696004803603810190610364919061308e565b610b6c565b60405161037691906130ca565b60405180910390f35b34801561038b57600080fd5b506103a660048036038101906103a191906130e5565b610b8c565b005b3480156103b457600080fd5b506103cf60048036038101906103ca91906130e5565b610bae565b005b3480156103dd57600080fd5b506103e6610c29565b005b3480156103f457600080fd5b5061040f600480360381019061040a9190613005565b610c5e565b005b34801561041d57600080fd5b50610426610c7e565b6040516104339190612e0d565b60405180910390f35b34801561044857600080fd5b50610451610c95565b60405161045e9190613141565b60405180910390f35b34801561047357600080fd5b5061048e60048036038101906104899190612f10565b610c9a565b60405161049b9190612f7e565b60405180910390f35b3480156104b057600080fd5b506104b9610cac565b6040516104c69190613141565b60405180910390f35b3480156104db57600080fd5b506104e4610cb1565b6040516104f19190613141565b60405180910390f35b34801561050657600080fd5b50610521600480360381019061051c919061315c565b610cb6565b60405161052e9190613198565b60405180910390f35b34801561054357600080fd5b5061054c610d70565b005b34801561055a57600080fd5b506105756004803603810190610570919061308e565b610d84565b604051610584939291906131b3565b60405180910390f35b34801561059957600080fd5b506105b460048036038101906105af919061308e565b610dce565b005b3480156105c257600080fd5b506105cb610edb565b005b3480156105d957600080fd5b506105e2610f10565b6040516105ef9190612f7e565b60405180910390f35b34801561060457600080fd5b5061061f600480360381019061061a91906130e5565b610f3a565b60405161062c9190612e0d565b60405180910390f35b34801561064157600080fd5b5061065c6004803603810190610657919061315c565b610fa5565b6040516106699190613198565b60405180910390f35b34801561067e57600080fd5b50610687610fbd565b6040516106949190612f7e565b60405180910390f35b3480156106a957600080fd5b506106b2610fe3565b6040516106bf9190612eb8565b60405180910390f35b3480156106d457600080fd5b506106dd611075565b6040516106ea91906130ca565b60405180910390f35b3480156106ff57600080fd5b5061071a60048036038101906107159190613216565b61107c565b005b34801561072857600080fd5b50610731611092565b60405161073e9190613141565b60405180910390f35b34801561075357600080fd5b5061076e6004803603810190610769919061338b565b611097565b005b34801561077c57600080fd5b506107856110b4565b6040516107929190613198565b60405180910390f35b3480156107a757600080fd5b506107c260048036038101906107bd9190612f10565b6110bf565b6040516107cf9190612eb8565b60405180910390f35b3480156107e457600080fd5b506107ed611128565b6040516107fa9190612f7e565b60405180910390f35b34801561080f57600080fd5b5061081861114e565b60405161082591906130ca565b60405180910390f35b34801561083a57600080fd5b50610855600480360381019061085091906130e5565b611172565b005b610871600480360381019061086c919061308e565b611194565b005b34801561087f57600080fd5b506108886114fc565b60405161089591906130ca565b60405180910390f35b3480156108aa57600080fd5b506108c560048036038101906108c09190612f10565b611520565b6040516108d392919061340e565b60405180910390f35b3480156108e857600080fd5b5061090360048036038101906108fe9190613437565b611564565b6040516109109190612e0d565b60405180910390f35b34801561092557600080fd5b5061092e6115f8565b005b34801561093c57600080fd5b50610945611625565b6040516109529190612f7e565b60405180910390f35b34801561096757600080fd5b50610982600480360381019061097d919061315c565b61164b565b005b600061098f826116d1565b8061099f575061099e826117b3565b5b9050919050565b6060600080546109b5906134a6565b80601f01602080910402602001604051908101604052809291908181526020018280546109e1906134a6565b8015610a2e5780601f10610a0357610100808354040283529160200191610a2e565b820191906000526020600020905b815481529060010190602001808311610a1157829003601f168201915b5050505050905090565b6000610a438261182d565b50610a4d826118b5565b9050919050565b610a668282610a616118f2565b6118fa565b5050565b600073ffffffffffffffffffffffffffffffffffffffff168273ffffffffffffffffffffffffffffffffffffffff1603610adc5760006040517f64a0ae92000000000000000000000000000000000000000000000000000000008152600401610ad39190612f7e565b60405180910390fd5b6000610af08383610aeb6118f2565b61190c565b90508373ffffffffffffffffffffffffffffffffffffffff168173ffffffffffffffffffffffffffffffffffffffff1614610b66578382826040517f64283d7b000000000000000000000000000000000000000000000000000000008152600401610b5d939291906134d7565b60405180910390fd5b50505050565b600060076000838152602001908152602001600020600101549050919050565b610b9582610b6c565b610b9e81611922565b610ba88383611936565b50505050565b610bb66118f2565b73ffffffffffffffffffffffffffffffffffffffff168173ffffffffffffffffffffffffffffffffffffffff1614610c1a576040517f6697b23200000000000000000000000000000000000000000000000000000000815260040160405180910390fd5b610c248282611a28565b505050565b7f65d7a28e3265b37a6474929f336521b332c1681b933f6cb9f3376673440d862a610c5381611922565b610c5b611b1b565b50565b610c7983838360405180602001604052806000815250611097565b505050565b6000600660009054906101000a900460ff16905090565b600581565b6000610ca58261182d565b9050919050565b600f81565b600581565b60008073ffffffffffffffffffffffffffffffffffffffff168273ffffffffffffffffffffffffffffffffffffffff1603610d295760006040517f89c62b64000000000000000000000000000000000000000000000000000000008152600401610d209190612f7e565b60405180910390fd5b600360008373ffffffffffffffffffffffffffffffffffffffff1673ffffffffffffffffffffffffffffffffffffffff168152602001908152602001600020549050919050565b610d78611b7e565b610d826000611c05565b565b600d6020528060005260406000206000915090508060000160009054906101000a900473ffffffffffffffffffffffffffffffffffffffff16908060010154908060020154905083565b7f9f2df0fed2c77648de5860a4cc508cd0818c85b8b8a1ab4ceeef8d981c8956a6610df881611922565b6000600d60008481526020019081526020016000206040518060600160405290816000820160009054906101000a900473ffffffffffffffffffffffffffffffffffffffff1673ffffffffffffffffffffffffffffffffffffffff1673ffffffffffffffffffffffffffffffffffffffff168152602001600182015481526020016002820154815250509050600081600001519050600073ffffffffffffffffffffffffffffffffffffffff168173ffffffffffffffffffffffffffffffffffffffff1614610ecb57610eca81611ccb565b5b610ed484611e07565b5050505050565b7f65d7a28e3265b37a6474929f336521b332c1681b933f6cb9f3376673440d862a610f0581611922565b610f0d611f6a565b50565b6000600860009054906101000a900473ffffffffffffffffffffffffffffffffffffffff16905090565b60006007600084815260200190815260200160002060000160008373ffffffffffffffffffffffffffffffffffffffff1673ffffffffffffffffffffffffffffffffffffffff16815260200190815260200160002060009054906101000a900460ff16905092915050565b600e6020528060005260406000206000915090505481565b600b60009054906101000a900473ffffffffffffffffffffffffffffffffffffffff1681565b606060018054610ff2906134a6565b80601f016020809104026020016040519081016040528092919081815260200182805461101e906134a6565b801561106b5780601f106110405761010080835404028352916020019161106b565b820191906000526020600020905b81548152906001019060200180831161104e57829003601f168201915b5050505050905090565b6000801b81565b61108e6110876118f2565b8383611fcd565b5050565b600581565b6110a2848484610a6a565b6110ae8484848461213c565b50505050565b6603e871b540c00081565b60606110ca8261182d565b5060006110d56122f3565b905060008151116110f55760405180602001604052806000815250611120565b806110ff8461230a565b60405160200161111092919061354a565b6040516020818303038152906040525b915050919050565b600a60009054906101000a900473ffffffffffffffffffffffffffffffffffffffff1681565b7f9f2df0fed2c77648de5860a4cc508cd0818c85b8b8a1ab4ceeef8d981c8956a681565b61117b82610b6c565b61118481611922565b61118e8383611a28565b50505050565b7f9f2df0fed2c77648de5860a4cc508cd0818c85b8b8a1ab4ceeef8d981c8956a66111be81611922565b6603e871b540c000341015611208576040517f08c379a00000000000000000000000000000000000000000000000000000000081526004016111ff906135ba565b60405180910390fd5b60006064600f60ff163461121c9190613609565b611226919061367a565b905060006064600560ff168361123c9190613609565b611246919061367a565b905060006064600560ff168461125c9190613609565b611266919061367a565b905060006064600560ff168561127c9190613609565b611286919061367a565b9050600a60009054906101000a900473ffffffffffffffffffffffffffffffffffffffff1673ffffffffffffffffffffffffffffffffffffffff166108fc849081150290604051600060405180830381858888f193505050501580156112f0573d6000803e3d6000fd5b50600b60009054906101000a900473ffffffffffffffffffffffffffffffffffffffff1673ffffffffffffffffffffffffffffffffffffffff166108fc839081150290604051600060405180830381858888f19350505050158015611359573d6000803e3d6000fd5b50600c60009054906101000a900473ffffffffffffffffffffffffffffffffffffffff1673ffffffffffffffffffffffffffffffffffffffff166108fc829081150290604051600060405180830381858888f193505050501580156113c2573d6000803e3d6000fd5b506000600960008154809291906113d8906136ab565b9190505590506113e833826123d8565b60405180604001604052808881526020013373ffffffffffffffffffffffffffffffffffffffff16815250601060008381526020019081526020016000206000820151816000015560208201518160010160006101000a81548173ffffffffffffffffffffffffffffffffffffffff021916908373ffffffffffffffffffffffffffffffffffffffff160217905550905050803373ffffffffffffffffffffffffffffffffffffffff167f943a7955793829f843566ad36b12e05ecfea874283ed9658c9fab793328d280760405180604001604052808b81526020013373ffffffffffffffffffffffffffffffffffffffff168152506040516114eb9190613740565b60405180910390a350505050505050565b7f65d7a28e3265b37a6474929f336521b332c1681b933f6cb9f3376673440d862a81565b60106020528060005260406000206000915090508060000154908060010160009054906101000a900473ffffffffffffffffffffffffffffffffffffffff16905082565b6000600560008473ffffffffffffffffffffffffffffffffffffffff1673ffffffffffffffffffffffffffffffffffffffff16815260200190815260200160002060008373ffffffffffffffffffffffffffffffffffffffff1673ffffffffffffffffffffffffffffffffffffffff16815260200190815260200160002060009054906101000a900460ff16905092915050565b6116227f9f2df0fed2c77648de5860a4cc508cd0818c85b8b8a1ab4ceeef8d981c8956a633611936565b50565b600c60009054906101000a900473ffffffffffffffffffffffffffffffffffffffff1681565b611653611b7e565b600073ffffffffffffffffffffffffffffffffffffffff168173ffffffffffffffffffffffffffffffffffffffff16036116c55760006040517f1e4fbdf70000000000000000000000000000000000000000000000000000000081526004016116bc9190612f7e565b60405180910390fd5b6116ce81611c05565b50565b60007f80ac58cd000000000000000000000000000000000000000000000000000000007bffffffffffffffffffffffffffffffffffffffffffffffffffffffff1916827bffffffffffffffffffffffffffffffffffffffffffffffffffffffff1916148061179c57507f5b5e139f000000000000000000000000000000000000000000000000000000007bffffffffffffffffffffffffffffffffffffffffffffffffffffffff1916827bffffffffffffffffffffffffffffffffffffffffffffffffffffffff1916145b806117ac57506117ab826124d1565b5b9050919050565b60007f7965db0b000000000000000000000000000000000000000000000000000000007bffffffffffffffffffffffffffffffffffffffffffffffffffffffff1916827bffffffffffffffffffffffffffffffffffffffffffffffffffffffff191614806118265750611825826116d1565b5b9050919050565b6000806118398361253b565b9050600073ffffffffffffffffffffffffffffffffffffffff168173ffffffffffffffffffffffffffffffffffffffff16036118ac57826040517f7e2732890000000000000000000000000000000000000000000000000000000081526004016118a39190613198565b60405180910390fd5b80915050919050565b60006004600083815260200190815260200160002060009054906101000a900473ffffffffffffffffffffffffffffffffffffffff169050919050565b600033905090565b6119078383836001612578565b505050565b600061191984848461273d565b90509392505050565b6119338161192e6118f2565b61275b565b50565b60006119428383610f3a565b611a1d5760016007600085815260200190815260200160002060000160008473ffffffffffffffffffffffffffffffffffffffff1673ffffffffffffffffffffffffffffffffffffffff16815260200190815260200160002060006101000a81548160ff0219169083151502179055506119ba6118f2565b73ffffffffffffffffffffffffffffffffffffffff168273ffffffffffffffffffffffffffffffffffffffff16847f2f8788117e7eff1d82e926ec794901d17c78024a50270940304540a733656f0d60405160405180910390a460019050611a22565b600090505b92915050565b6000611a348383610f3a565b15611b105760006007600085815260200190815260200160002060000160008473ffffffffffffffffffffffffffffffffffffffff1673ffffffffffffffffffffffffffffffffffffffff16815260200190815260200160002060006101000a81548160ff021916908315150217905550611aad6118f2565b73ffffffffffffffffffffffffffffffffffffffff168273ffffffffffffffffffffffffffffffffffffffff16847ff6391f5c32d9c69d2a47ea670b442974b53935d1edc7fd64eb21e047a839171b60405160405180910390a460019050611b15565b600090505b92915050565b611b236127ac565b6000600660006101000a81548160ff0219169083151502179055507f5db9ee0a495bf2e6ff9c91a7834c1ba4fdd244a5e8aa4e537bd38aeae4b073aa611b676118f2565b604051611b749190612f7e565b60405180910390a1565b611b866118f2565b73ffffffffffffffffffffffffffffffffffffffff16611ba4610f10565b73ffffffffffffffffffffffffffffffffffffffff1614611c0357611bc76118f2565b6040517f118cdaa7000000000000000000000000000000000000000000000000000000008152600401611bfa9190612f7e565b60405180910390fd5b565b6000600860009054906101000a900473ffffffffffffffffffffffffffffffffffffffff16905081600860006101000a81548173ffffffffffffffffffffffffffffffffffffffff021916908373ffffffffffffffffffffffffffffffffffffffff1602179055508173ffffffffffffffffffffffffffffffffffffffff168173ffffffffffffffffffffffffffffffffffffffff167f8be0079c531659141344cd1fd0a4f28419497f9722a3daafe3b4186f6b6457e060405160405180910390a35050565b600060096000815480929190611ce0906136ab565b919050559050611cf082826123d8565b6040518060400160405280600080191681526020018373ffffffffffffffffffffffffffffffffffffffff16815250601060008381526020019081526020016000206000820151816000015560208201518160010160006101000a81548173ffffffffffffffffffffffffffffffffffffffff021916908373ffffffffffffffffffffffffffffffffffffffff160217905550905050808273ffffffffffffffffffffffffffffffffffffffff167f943a7955793829f843566ad36b12e05ecfea874283ed9658c9fab793328d28076040518060400160405280600080191681526020018673ffffffffffffffffffffffffffffffffffffffff16815250604051611dfb9190613740565b60405180910390a35050565b611e0f612d1f565b6000600d60008481526020019081526020016000206002015490508080611e35906136ab565b91505060405180606001604052803373ffffffffffffffffffffffffffffffffffffffff16815260200184815260200182815250600d600085815260200190815260200160002060008201518160000160006101000a81548173ffffffffffffffffffffffffffffffffffffffff021916908373ffffffffffffffffffffffffffffffffffffffff1602179055506020820151816001015560408201518160020155905050600d60008481526020019081526020016000206040518060600160405290816000820160009054906101000a900473ffffffffffffffffffffffffffffffffffffffff1673ffffffffffffffffffffffffffffffffffffffff1673ffffffffffffffffffffffffffffffffffffffff16815260200160018201548152602001600282015481525050915050919050565b611f726127ec565b6001600660006101000a81548160ff0219169083151502179055507f62e78cea01bee320cd4e420270b5ea74000d11b0c9f74754ebdbfc544b05a258611fb66118f2565b604051611fc39190612f7e565b60405180910390a1565b600073ffffffffffffffffffffffffffffffffffffffff168273ffffffffffffffffffffffffffffffffffffffff160361203e57816040517f5b08ba180000000000000000000000000000000000000000000000000000000081526004016120359190612f7e565b60405180910390fd5b80600560008573ffffffffffffffffffffffffffffffffffffffff1673ffffffffffffffffffffffffffffffffffffffff16815260200190815260200160002060008473ffffffffffffffffffffffffffffffffffffffff1673ffffffffffffffffffffffffffffffffffffffff16815260200190815260200160002060006101000a81548160ff0219169083151502179055508173ffffffffffffffffffffffffffffffffffffffff168373ffffffffffffffffffffffffffffffffffffffff167f17307eab39ab6107e8899845ad3d59bd9653f200f220920489ca2b5937696c318360405161212f9190612e0d565b60405180910390a3505050565b60008373ffffffffffffffffffffffffffffffffffffffff163b11156122ed578273ffffffffffffffffffffffffffffffffffffffff1663150b7a026121806118f2565b8685856040518563ffffffff1660e01b81526004016121a294939291906137b0565b6020604051808303816000875af19250505080156121de57506040513d601f19601f820116820180604052508101906121db9190613811565b60015b612262573d806000811461220e576040519150601f19603f3d011682016040523d82523d6000602084013e612213565b606091505b50600081510361225a57836040517f64a0ae920000000000000000000000000000000000000000000000000000000081526004016122519190612f7e565b60405180910390fd5b805181602001fd5b63150b7a0260e01b7bffffffffffffffffffffffffffffffffffffffffffffffffffffffff1916817bffffffffffffffffffffffffffffffffffffffffffffffffffffffff1916146122eb57836040517f64a0ae920000000000000000000000000000000000000000000000000000000081526004016122e29190612f7e565b60405180910390fd5b505b50505050565b606060405180602001604052806000815250905090565b6060600060016123198461282d565b01905060008167ffffffffffffffff81111561233857612337613260565b5b6040519080825280601f01601f19166020018201604052801561236a5781602001600182028036833780820191505090505b509050600082602001820190505b6001156123cd578080600190039150507f3031323334353637383961626364656600000000000000000000000000000000600a86061a8153600a85816123c1576123c061364b565b5b04945060008503612378575b819350505050919050565b600073ffffffffffffffffffffffffffffffffffffffff168273ffffffffffffffffffffffffffffffffffffffff160361244a5760006040517f64a0ae920000000000000000000000000000000000000000000000000000000081526004016124419190612f7e565b60405180910390fd5b60006124588383600061190c565b9050600073ffffffffffffffffffffffffffffffffffffffff168173ffffffffffffffffffffffffffffffffffffffff16146124cc5760006040517f73c6ac6e0000000000000000000000000000000000000000000000000000000081526004016124c39190612f7e565b60405180910390fd5b505050565b60007f01ffc9a7000000000000000000000000000000000000000000000000000000007bffffffffffffffffffffffffffffffffffffffffffffffffffffffff1916827bffffffffffffffffffffffffffffffffffffffffffffffffffffffff1916149050919050565b60006002600083815260200190815260200160002060009054906101000a900473ffffffffffffffffffffffffffffffffffffffff169050919050565b80806125b15750600073ffffffffffffffffffffffffffffffffffffffff168273ffffffffffffffffffffffffffffffffffffffff1614155b156126e55760006125c18461182d565b9050600073ffffffffffffffffffffffffffffffffffffffff168373ffffffffffffffffffffffffffffffffffffffff161415801561262c57508273ffffffffffffffffffffffffffffffffffffffff168173ffffffffffffffffffffffffffffffffffffffff1614155b801561263f575061263d8184611564565b155b1561268157826040517fa9fbf51f0000000000000000000000000000000000000000000000000000000081526004016126789190612f7e565b60405180910390fd5b81156126e357838573ffffffffffffffffffffffffffffffffffffffff168273ffffffffffffffffffffffffffffffffffffffff167f8c5be1e5ebec7d5bd14f71427d1e84f3dd0314c0f7b2291e5b200ac8c7c3b92560405160405180910390a45b505b836004600085815260200190815260200160002060006101000a81548173ffffffffffffffffffffffffffffffffffffffff021916908373ffffffffffffffffffffffffffffffffffffffff16021790555050505050565b60006127476127ec565b612752848484612980565b90509392505050565b6127658282610f3a565b6127a85780826040517fe2517d3f00000000000000000000000000000000000000000000000000000000815260040161279f92919061383e565b60405180910390fd5b5050565b6127b4610c7e565b6127ea576040517f8dfc202b00000000000000000000000000000000000000000000000000000000815260040160405180910390fd5b565b6127f4610c7e565b1561282b576040517fd93c066500000000000000000000000000000000000000000000000000000000815260040160405180910390fd5b565b600080600090507a184f03e93ff9f4daa797ed6e38ed64bf6a1f010000000000000000831061288b577a184f03e93ff9f4daa797ed6e38ed64bf6a1f01000000000000000083816128815761288061364b565b5b0492506040810190505b6d04ee2d6d415b85acef810000000083106128c8576d04ee2d6d415b85acef810000000083816128be576128bd61364b565b5b0492506020810190505b662386f26fc1000083106128f757662386f26fc1000083816128ed576128ec61364b565b5b0492506010810190505b6305f5e1008310612920576305f5e10083816129165761291561364b565b5b0492506008810190505b612710831061294557612710838161293b5761293a61364b565b5b0492506004810190505b60648310612968576064838161295e5761295d61364b565b5b0492506002810190505b600a8310612977576001810190505b80915050919050565b60008061298c8461253b565b9050600073ffffffffffffffffffffffffffffffffffffffff168373ffffffffffffffffffffffffffffffffffffffff16146129ce576129cd818486612b9a565b5b600073ffffffffffffffffffffffffffffffffffffffff168173ffffffffffffffffffffffffffffffffffffffff1614612a5f57612a10600085600080612578565b6001600360008373ffffffffffffffffffffffffffffffffffffffff1673ffffffffffffffffffffffffffffffffffffffff168152602001908152602001600020600082825403925050819055505b600073ffffffffffffffffffffffffffffffffffffffff168573ffffffffffffffffffffffffffffffffffffffff1614612ae2576001600360008773ffffffffffffffffffffffffffffffffffffffff1673ffffffffffffffffffffffffffffffffffffffff168152602001908152602001600020600082825401925050819055505b846002600086815260200190815260200160002060006101000a81548173ffffffffffffffffffffffffffffffffffffffff021916908373ffffffffffffffffffffffffffffffffffffffff160217905550838573ffffffffffffffffffffffffffffffffffffffff168273ffffffffffffffffffffffffffffffffffffffff167fddf252ad1be2c89b69c2b068fc378daa952ba7f163c4a11628f55a4df523b3ef60405160405180910390a4809150509392505050565b612ba5838383612c5e565b612c5957600073ffffffffffffffffffffffffffffffffffffffff168373ffffffffffffffffffffffffffffffffffffffff1603612c1a57806040517f7e273289000000000000000000000000000000000000000000000000000000008152600401612c119190613198565b60405180910390fd5b81816040517f177e802f000000000000000000000000000000000000000000000000000000008152600401612c50929190613867565b60405180910390fd5b505050565b60008073ffffffffffffffffffffffffffffffffffffffff168373ffffffffffffffffffffffffffffffffffffffff1614158015612d1657508273ffffffffffffffffffffffffffffffffffffffff168473ffffffffffffffffffffffffffffffffffffffff161480612cd75750612cd68484611564565b5b80612d1557508273ffffffffffffffffffffffffffffffffffffffff16612cfd836118b5565b73ffffffffffffffffffffffffffffffffffffffff16145b5b90509392505050565b6040518060600160405280600073ffffffffffffffffffffffffffffffffffffffff16815260200160008019168152602001600081525090565b6000604051905090565b600080fd5b600080fd5b60007fffffffff0000000000000000000000000000000000000000000000000000000082169050919050565b612da281612d6d565b8114612dad57600080fd5b50565b600081359050612dbf81612d99565b92915050565b600060208284031215612ddb57612dda612d63565b5b6000612de984828501612db0565b91505092915050565b60008115159050919050565b612e0781612df2565b82525050565b6000602082019050612e226000830184612dfe565b92915050565b600081519050919050565b600082825260208201905092915050565b60005b83811015612e62578082015181840152602081019050612e47565b60008484015250505050565b6000601f19601f8301169050919050565b6000612e8a82612e28565b612e948185612e33565b9350612ea4818560208601612e44565b612ead81612e6e565b840191505092915050565b60006020820190508181036000830152612ed28184612e7f565b905092915050565b6000819050919050565b612eed81612eda565b8114612ef857600080fd5b50565b600081359050612f0a81612ee4565b92915050565b600060208284031215612f2657612f25612d63565b5b6000612f3484828501612efb565b91505092915050565b600073ffffffffffffffffffffffffffffffffffffffff82169050919050565b6000612f6882612f3d565b9050919050565b612f7881612f5d565b82525050565b6000602082019050612f936000830184612f6f565b92915050565b612fa281612f5d565b8114612fad57600080fd5b50565b600081359050612fbf81612f99565b92915050565b60008060408385031215612fdc57612fdb612d63565b5b6000612fea85828601612fb0565b9250506020612ffb85828601612efb565b9150509250929050565b60008060006060848603121561301e5761301d612d63565b5b600061302c86828701612fb0565b935050602061303d86828701612fb0565b925050604061304e86828701612efb565b9150509250925092565b6000819050919050565b61306b81613058565b811461307657600080fd5b50565b60008135905061308881613062565b92915050565b6000602082840312156130a4576130a3612d63565b5b60006130b284828501613079565b91505092915050565b6130c481613058565b82525050565b60006020820190506130df60008301846130bb565b92915050565b600080604083850312156130fc576130fb612d63565b5b600061310a85828601613079565b925050602061311b85828601612fb0565b9150509250929050565b600060ff82169050919050565b61313b81613125565b82525050565b60006020820190506131566000830184613132565b92915050565b60006020828403121561317257613171612d63565b5b600061318084828501612fb0565b91505092915050565b61319281612eda565b82525050565b60006020820190506131ad6000830184613189565b92915050565b60006060820190506131c86000830186612f6f565b6131d560208301856130bb565b6131e26040830184613189565b949350505050565b6131f381612df2565b81146131fe57600080fd5b50565b600081359050613210816131ea565b92915050565b6000806040838503121561322d5761322c612d63565b5b600061323b85828601612fb0565b925050602061324c85828601613201565b9150509250929050565b600080fd5b600080fd5b7f4e487b7100000000000000000000000000000000000000000000000000000000600052604160045260246000fd5b61329882612e6e565b810181811067ffffffffffffffff821117156132b7576132b6613260565b5b80604052505050565b60006132ca612d59565b90506132d6828261328f565b919050565b600067ffffffffffffffff8211156132f6576132f5613260565b5b6132ff82612e6e565b9050602081019050919050565b82818337600083830152505050565b600061332e613329846132db565b6132c0565b90508281526020810184848401111561334a5761334961325b565b5b61335584828561330c565b509392505050565b600082601f83011261337257613371613256565b5b813561338284826020860161331b565b91505092915050565b600080600080608085870312156133a5576133a4612d63565b5b60006133b387828801612fb0565b94505060206133c487828801612fb0565b93505060406133d587828801612efb565b925050606085013567ffffffffffffffff8111156133f6576133f5612d68565b5b6134028782880161335d565b91505092959194509250565b600060408201905061342360008301856130bb565b6134306020830184612f6f565b9392505050565b6000806040838503121561344e5761344d612d63565b5b600061345c85828601612fb0565b925050602061346d85828601612fb0565b9150509250929050565b7f4e487b7100000000000000000000000000000000000000000000000000000000600052602260045260246000fd5b600060028204905060018216806134be57607f821691505b6020821081036134d1576134d0613477565b5b50919050565b60006060820190506134ec6000830186612f6f565b6134f96020830185613189565b6135066040830184612f6f565b949350505050565b600081905092915050565b600061352482612e28565b61352e818561350e565b935061353e818560208601612e44565b80840191505092915050565b60006135568285613519565b91506135628284613519565b91508190509392505050565b7f496e73756666696369656e74204554482073656e740000000000000000000000600082015250565b60006135a4601583612e33565b91506135af8261356e565b602082019050919050565b600060208201905081810360008301526135d381613597565b9050919050565b7f4e487b7100000000000000000000000000000000000000000000000000000000600052601160045260246000fd5b600061361482612eda565b915061361f83612eda565b925082820261362d81612eda565b91508282048414831517613644576136436135da565b5b5092915050565b7f4e487b7100000000000000000000000000000000000000000000000000000000600052601260045260246000fd5b600061368582612eda565b915061369083612eda565b9250826136a05761369f61364b565b5b828204905092915050565b60006136b682612eda565b91507fffffffffffffffffffffffffffffffffffffffffffffffffffffffffffffffff82036136e8576136e76135da565b5b600182019050919050565b6136fc81613058565b82525050565b61370b81612f5d565b82525050565b60408201600082015161372760008501826136f3565b50602082015161373a6020850182613702565b50505050565b60006040820190506137556000830184613711565b92915050565b600081519050919050565b600082825260208201905092915050565b60006137828261375b565b61378c8185613766565b935061379c818560208601612e44565b6137a581612e6e565b840191505092915050565b60006080820190506137c56000830187612f6f565b6137d26020830186612f6f565b6137df6040830185613189565b81810360608301526137f18184613777565b905095945050505050565b60008151905061380b81612d99565b92915050565b60006020828403121561382757613826612d63565b5b6000613835848285016137fc565b91505092915050565b60006040820190506138536000830185612f6f565b61386060208301846130bb565b9392505050565b600060408201905061387c6000830185612f6f565b6138896020830184613189565b939250505056fea264697066735822122028ed0eeaf17d88f7af671079a31fb6d5ec802420e32dd7e6d68d4b0d340aa24f64736f6c634300081a0033",
  "linkReferences": {},
  "deployedLinkReferences": {}
}